{
	"contracts/simpleAMM.sol": {
		"simpleAMM": {
			"abi": [
				{
					"inputs": [
						{
							"internalType": "address",
							"name": "_tokenA",
							"type": "address"
						},
						{
							"internalType": "address",
							"name": "_tokenB",
							"type": "address"
						}
					],
					"stateMutability": "nonpayable",
					"type": "constructor"
				},
				{
					"inputs": [
						{
							"internalType": "uint256",
							"name": "amountA",
							"type": "uint256"
						},
						{
							"internalType": "uint256",
							"name": "amountB",
							"type": "uint256"
						}
					],
					"name": "addLiquidity",
					"outputs": [],
					"stateMutability": "nonpayable",
					"type": "function"
				},
				{
					"inputs": [
						{
							"internalType": "uint256",
							"name": "amountIn",
							"type": "uint256"
						},
						{
							"internalType": "uint256",
							"name": "reserveIn",
							"type": "uint256"
						},
						{
							"internalType": "uint256",
							"name": "reserveOut",
							"type": "uint256"
						}
					],
					"name": "getAmountOut",
					"outputs": [
						{
							"internalType": "uint256",
							"name": "amountOut",
							"type": "uint256"
						}
					],
					"stateMutability": "pure",
					"type": "function"
				},
				{
					"inputs": [],
					"name": "reserveA",
					"outputs": [
						{
							"internalType": "uint256",
							"name": "",
							"type": "uint256"
						}
					],
					"stateMutability": "view",
					"type": "function"
				},
				{
					"inputs": [],
					"name": "reserveB",
					"outputs": [
						{
							"internalType": "uint256",
							"name": "",
							"type": "uint256"
						}
					],
					"stateMutability": "view",
					"type": "function"
				},
				{
					"inputs": [
						{
							"internalType": "uint256",
							"name": "amountAIn",
							"type": "uint256"
						}
					],
					"name": "swapAForB",
					"outputs": [],
					"stateMutability": "nonpayable",
					"type": "function"
				},
				{
					"inputs": [
						{
							"internalType": "uint256",
							"name": "amountBIn",
							"type": "uint256"
						}
					],
					"name": "swapBForA",
					"outputs": [],
					"stateMutability": "nonpayable",
					"type": "function"
				},
				{
					"inputs": [],
					"name": "tokenA",
					"outputs": [
						{
							"internalType": "contract ERC20",
							"name": "",
							"type": "address"
						}
					],
					"stateMutability": "view",
					"type": "function"
				},
				{
					"inputs": [],
					"name": "tokenB",
					"outputs": [
						{
							"internalType": "contract ERC20",
							"name": "",
							"type": "address"
						}
					],
					"stateMutability": "view",
					"type": "function"
				}
			],
			"devdoc": {
				"kind": "dev",
				"methods": {},
				"version": 1
			},
			"evm": {
				"assembly": "    /* \"contracts/simpleAMM.sol\":80:1611  contract simpleAMM{... */\n  mstore(0x40, 0x80)\n    /* \"contracts/simpleAMM.sol\":213:330  constructor(address _tokenA,address _tokenB){... */\n  callvalue\n  dup1\n  iszero\n  tag_1\n  jumpi\n  revert(0x00, 0x00)\ntag_1:\n  pop\n  mload(0x40)\n  sub(codesize, bytecodeSize)\n  dup1\n  bytecodeSize\n  dup4\n  codecopy\n  dup2\n  dup2\n  add\n  0x40\n  mstore\n  dup2\n  add\n  swap1\n  tag_2\n  swap2\n  swap1\n  tag_3\n  jump\t// in\ntag_2:\n    /* \"contracts/simpleAMM.sol\":282:289  _tokenA */\n  dup2\n    /* \"contracts/simpleAMM.sol\":268:274  tokenA */\n  0x00\n  0x00\n    /* \"contracts/simpleAMM.sol\":268:290  tokenA =ERC20(_tokenA) */\n  0x0100\n  exp\n  dup2\n  sload\n  dup2\n  0xffffffffffffffffffffffffffffffffffffffff\n  mul\n  not\n  and\n  swap1\n  dup4\n  0xffffffffffffffffffffffffffffffffffffffff\n  and\n  mul\n  or\n  swap1\n  sstore\n  pop\n    /* \"contracts/simpleAMM.sol\":314:321  _tokenB */\n  dup1\n    /* \"contracts/simpleAMM.sol\":300:306  tokenB */\n  0x01\n  0x00\n    /* \"contracts/simpleAMM.sol\":300:322  tokenB =ERC20(_tokenB) */\n  0x0100\n  exp\n  dup2\n  sload\n  dup2\n  0xffffffffffffffffffffffffffffffffffffffff\n  mul\n  not\n  and\n  swap1\n  dup4\n  0xffffffffffffffffffffffffffffffffffffffff\n  and\n  mul\n  or\n  swap1\n  sstore\n  pop\n    /* \"contracts/simpleAMM.sol\":213:330  constructor(address _tokenA,address _tokenB){... */\n  pop\n  pop\n    /* \"contracts/simpleAMM.sol\":80:1611  contract simpleAMM{... */\n  jump(tag_6)\n    /* \"#utility.yul\":88:205   */\ntag_8:\n    /* \"#utility.yul\":197:198   */\n  0x00\n    /* \"#utility.yul\":194:195   */\n  0x00\n    /* \"#utility.yul\":187:199   */\n  revert\n    /* \"#utility.yul\":334:460   */\ntag_10:\n    /* \"#utility.yul\":371:378   */\n  0x00\n    /* \"#utility.yul\":411:453   */\n  0xffffffffffffffffffffffffffffffffffffffff\n    /* \"#utility.yul\":404:409   */\n  dup3\n    /* \"#utility.yul\":400:454   */\n  and\n    /* \"#utility.yul\":389:454   */\n  swap1\n  pop\n    /* \"#utility.yul\":334:460   */\n  swap2\n  swap1\n  pop\n  jump\t// out\n    /* \"#utility.yul\":466:562   */\ntag_11:\n    /* \"#utility.yul\":503:510   */\n  0x00\n    /* \"#utility.yul\":532:556   */\n  tag_20\n    /* \"#utility.yul\":550:555   */\n  dup3\n    /* \"#utility.yul\":532:556   */\n  tag_10\n  jump\t// in\ntag_20:\n    /* \"#utility.yul\":521:556   */\n  swap1\n  pop\n    /* \"#utility.yul\":466:562   */\n  swap2\n  swap1\n  pop\n  jump\t// out\n    /* \"#utility.yul\":568:690   */\ntag_12:\n    /* \"#utility.yul\":641:665   */\n  tag_22\n    /* \"#utility.yul\":659:664   */\n  dup2\n    /* \"#utility.yul\":641:665   */\n  tag_11\n  jump\t// in\ntag_22:\n    /* \"#utility.yul\":634:639   */\n  dup2\n    /* \"#utility.yul\":631:666   */\n  eq\n    /* \"#utility.yul\":621:684   */\n  tag_23\n  jumpi\n    /* \"#utility.yul\":680:681   */\n  0x00\n    /* \"#utility.yul\":677:678   */\n  0x00\n    /* \"#utility.yul\":670:682   */\n  revert\n    /* \"#utility.yul\":621:684   */\ntag_23:\n    /* \"#utility.yul\":568:690   */\n  pop\n  jump\t// out\n    /* \"#utility.yul\":696:839   */\ntag_13:\n    /* \"#utility.yul\":753:758   */\n  0x00\n    /* \"#utility.yul\":784:790   */\n  dup2\n    /* \"#utility.yul\":778:791   */\n  mload\n    /* \"#utility.yul\":769:791   */\n  swap1\n  pop\n    /* \"#utility.yul\":800:833   */\n  tag_25\n    /* \"#utility.yul\":827:832   */\n  dup2\n    /* \"#utility.yul\":800:833   */\n  tag_12\n  jump\t// in\ntag_25:\n    /* \"#utility.yul\":696:839   */\n  swap3\n  swap2\n  pop\n  pop\n  jump\t// out\n    /* \"#utility.yul\":845:1352   */\ntag_3:\n    /* \"#utility.yul\":924:930   */\n  0x00\n    /* \"#utility.yul\":932:938   */\n  0x00\n    /* \"#utility.yul\":981:983   */\n  0x40\n    /* \"#utility.yul\":969:978   */\n  dup4\n    /* \"#utility.yul\":960:967   */\n  dup6\n    /* \"#utility.yul\":956:979   */\n  sub\n    /* \"#utility.yul\":952:984   */\n  slt\n    /* \"#utility.yul\":949:1068   */\n  iszero\n  tag_27\n  jumpi\n    /* \"#utility.yul\":987:1066   */\n  tag_28\n  tag_8\n  jump\t// in\ntag_28:\n    /* \"#utility.yul\":949:1068   */\ntag_27:\n    /* \"#utility.yul\":1107:1108   */\n  0x00\n    /* \"#utility.yul\":1132:1196   */\n  tag_29\n    /* \"#utility.yul\":1188:1195   */\n  dup6\n    /* \"#utility.yul\":1179:1185   */\n  dup3\n    /* \"#utility.yul\":1168:1177   */\n  dup7\n    /* \"#utility.yul\":1164:1186   */\n  add\n    /* \"#utility.yul\":1132:1196   */\n  tag_13\n  jump\t// in\ntag_29:\n    /* \"#utility.yul\":1122:1196   */\n  swap3\n  pop\n    /* \"#utility.yul\":1078:1206   */\n  pop\n    /* \"#utility.yul\":1245:1247   */\n  0x20\n    /* \"#utility.yul\":1271:1335   */\n  tag_30\n    /* \"#utility.yul\":1327:1334   */\n  dup6\n    /* \"#utility.yul\":1318:1324   */\n  dup3\n    /* \"#utility.yul\":1307:1316   */\n  dup7\n    /* \"#utility.yul\":1303:1325   */\n  add\n    /* \"#utility.yul\":1271:1335   */\n  tag_13\n  jump\t// in\ntag_30:\n    /* \"#utility.yul\":1261:1335   */\n  swap2\n  pop\n    /* \"#utility.yul\":1216:1345   */\n  pop\n    /* \"#utility.yul\":845:1352   */\n  swap3\n  pop\n  swap3\n  swap1\n  pop\n  jump\t// out\n    /* \"contracts/simpleAMM.sol\":80:1611  contract simpleAMM{... */\ntag_6:\n  dataSize(sub_0)\n  dup1\n  dataOffset(sub_0)\n  0x00\n  codecopy\n  0x00\n  return\nstop\n\nsub_0: assembly {\n        /* \"contracts/simpleAMM.sol\":80:1611  contract simpleAMM{... */\n      mstore(0x40, 0x80)\n      callvalue\n      dup1\n      iszero\n      tag_1\n      jumpi\n      revert(0x00, 0x00)\n    tag_1:\n      pop\n      jumpi(tag_2, lt(calldatasize, 0x04))\n      shr(0xe0, calldataload(0x00))\n      dup1\n      0x5f64b55b\n      gt\n      tag_11\n      jumpi\n      dup1\n      0x5f64b55b\n      eq\n      tag_7\n      jumpi\n      dup1\n      0x9cd441da\n      eq\n      tag_8\n      jumpi\n      dup1\n      0xdc5fa6c5\n      eq\n      tag_9\n      jumpi\n      dup1\n      0xe619a498\n      eq\n      tag_10\n      jumpi\n      jump(tag_2)\n    tag_11:\n      dup1\n      0x03102091\n      eq\n      tag_3\n      jumpi\n      dup1\n      0x054d50d4\n      eq\n      tag_4\n      jumpi\n      dup1\n      0x0fc63d10\n      eq\n      tag_5\n      jumpi\n      dup1\n      0x19e36f3b\n      eq\n      tag_6\n      jumpi\n    tag_2:\n      revert(0x00, 0x00)\n        /* \"contracts/simpleAMM.sol\":929:1265  function swapAForB(uint256 amountAIn) external{... */\n    tag_3:\n      tag_12\n      0x04\n      dup1\n      calldatasize\n      sub\n      dup2\n      add\n      swap1\n      tag_13\n      swap2\n      swap1\n      tag_14\n      jump\t// in\n    tag_13:\n      tag_15\n      jump\t// in\n    tag_12:\n      stop\n        /* \"contracts/simpleAMM.sol\":641:925  function getAmountOut(uint256 amountIn,uint256 reserveIn,uint256 reserveOut) public pure returns (uint256 amountOut){... */\n    tag_4:\n      tag_16\n      0x04\n      dup1\n      calldatasize\n      sub\n      dup2\n      add\n      swap1\n      tag_17\n      swap2\n      swap1\n      tag_18\n      jump\t// in\n    tag_17:\n      tag_19\n      jump\t// in\n    tag_16:\n      mload(0x40)\n      tag_20\n      swap2\n      swap1\n      tag_21\n      jump\t// in\n    tag_20:\n      mload(0x40)\n      dup1\n      swap2\n      sub\n      swap1\n      return\n        /* \"contracts/simpleAMM.sol\":104:123  ERC20 public tokenA */\n    tag_5:\n      tag_22\n      tag_23\n      jump\t// in\n    tag_22:\n      mload(0x40)\n      tag_24\n      swap2\n      swap1\n      tag_25\n      jump\t// in\n    tag_24:\n      mload(0x40)\n      dup1\n      swap2\n      sub\n      swap1\n      return\n        /* \"contracts/simpleAMM.sol\":183:206  uint256 public reserveB */\n    tag_6:\n      tag_26\n      tag_27\n      jump\t// in\n    tag_26:\n      mload(0x40)\n      tag_28\n      swap2\n      swap1\n      tag_21\n      jump\t// in\n    tag_28:\n      mload(0x40)\n      dup1\n      swap2\n      sub\n      swap1\n      return\n        /* \"contracts/simpleAMM.sol\":129:148  ERC20 public tokenB */\n    tag_7:\n      tag_29\n      tag_30\n      jump\t// in\n    tag_29:\n      mload(0x40)\n      tag_31\n      swap2\n      swap1\n      tag_25\n      jump\t// in\n    tag_31:\n      mload(0x40)\n      dup1\n      swap2\n      sub\n      swap1\n      return\n        /* \"contracts/simpleAMM.sol\":335:637  function addLiquidity(uint256 amountA,uint256 amountB) external {... */\n    tag_8:\n      tag_32\n      0x04\n      dup1\n      calldatasize\n      sub\n      dup2\n      add\n      swap1\n      tag_33\n      swap2\n      swap1\n      tag_34\n      jump\t// in\n    tag_33:\n      tag_35\n      jump\t// in\n    tag_32:\n      stop\n        /* \"contracts/simpleAMM.sol\":154:177  uint256 public reserveA */\n    tag_9:\n      tag_36\n      tag_37\n      jump\t// in\n    tag_36:\n      mload(0x40)\n      tag_38\n      swap2\n      swap1\n      tag_21\n      jump\t// in\n    tag_38:\n      mload(0x40)\n      dup1\n      swap2\n      sub\n      swap1\n      return\n        /* \"contracts/simpleAMM.sol\":1269:1608  function swapBForA(uint256 amountBIn) external {... */\n    tag_10:\n      tag_39\n      0x04\n      dup1\n      calldatasize\n      sub\n      dup2\n      add\n      swap1\n      tag_40\n      swap2\n      swap1\n      tag_14\n      jump\t// in\n    tag_40:\n      tag_41\n      jump\t// in\n    tag_39:\n      stop\n        /* \"contracts/simpleAMM.sol\":929:1265  function swapAForB(uint256 amountAIn) external{... */\n    tag_15:\n        /* \"contracts/simpleAMM.sol\":981:999  uint256 amountBOut */\n      0x00\n        /* \"contracts/simpleAMM.sol\":1002:1043  getAmountOut(amountAIn,reserveA,reserveB) */\n      tag_43\n        /* \"contracts/simpleAMM.sol\":1015:1024  amountAIn */\n      dup3\n        /* \"contracts/simpleAMM.sol\":1025:1033  reserveA */\n      sload(0x02)\n        /* \"contracts/simpleAMM.sol\":1034:1042  reserveB */\n      sload(0x03)\n        /* \"contracts/simpleAMM.sol\":1002:1014  getAmountOut */\n      tag_19\n        /* \"contracts/simpleAMM.sol\":1002:1043  getAmountOut(amountAIn,reserveA,reserveB) */\n      jump\t// in\n    tag_43:\n        /* \"contracts/simpleAMM.sol\":981:1043  uint256 amountBOut = getAmountOut(amountAIn,reserveA,reserveB) */\n      swap1\n      pop\n        /* \"contracts/simpleAMM.sol\":1057:1063  tokenA */\n      0x00\n      0x00\n      swap1\n      sload\n      swap1\n      0x0100\n      exp\n      swap1\n      div\n      0xffffffffffffffffffffffffffffffffffffffff\n      and\n        /* \"contracts/simpleAMM.sol\":1057:1076  tokenA.transferFrom */\n      0xffffffffffffffffffffffffffffffffffffffff\n      and\n      0x23b872dd\n        /* \"contracts/simpleAMM.sol\":1077:1087  msg.sender */\n      caller\n        /* \"contracts/simpleAMM.sol\":1096:1100  this */\n      address\n        /* \"contracts/simpleAMM.sol\":1102:1111  amountAIn */\n      dup6\n        /* \"contracts/simpleAMM.sol\":1057:1112  tokenA.transferFrom(msg.sender,address(this),amountAIn) */\n      mload(0x40)\n      dup5\n      0xffffffff\n      and\n      0xe0\n      shl\n      dup2\n      mstore\n      0x04\n      add\n      tag_44\n      swap4\n      swap3\n      swap2\n      swap1\n      tag_45\n      jump\t// in\n    tag_44:\n      0x20\n      mload(0x40)\n      dup1\n      dup4\n      sub\n      dup2\n      0x00\n      dup8\n      gas\n      call\n      iszero\n      dup1\n      iszero\n      tag_47\n      jumpi\n      returndatacopy(0x00, 0x00, returndatasize)\n      revert(0x00, returndatasize)\n    tag_47:\n      pop\n      pop\n      pop\n      pop\n      mload(0x40)\n      returndatasize\n      not(0x1f)\n      0x1f\n      dup3\n      add\n      and\n      dup3\n      add\n      dup1\n      0x40\n      mstore\n      pop\n      dup2\n      add\n      swap1\n      tag_48\n      swap2\n      swap1\n      tag_49\n      jump\t// in\n    tag_48:\n        /* \"contracts/simpleAMM.sol\":1049:1133  require(tokenA.transferFrom(msg.sender,address(this),amountAIn),\"A transfer failed\") */\n      tag_50\n      jumpi\n      mload(0x40)\n      0x08c379a000000000000000000000000000000000000000000000000000000000\n      dup2\n      mstore\n      0x04\n      add\n      tag_51\n      swap1\n      tag_52\n      jump\t// in\n    tag_51:\n      mload(0x40)\n      dup1\n      swap2\n      sub\n      swap1\n      revert\n    tag_50:\n        /* \"contracts/simpleAMM.sol\":1147:1153  tokenB */\n      0x01\n      0x00\n      swap1\n      sload\n      swap1\n      0x0100\n      exp\n      swap1\n      div\n      0xffffffffffffffffffffffffffffffffffffffff\n      and\n        /* \"contracts/simpleAMM.sol\":1147:1162  tokenB.transfer */\n      0xffffffffffffffffffffffffffffffffffffffff\n      and\n      0xa9059cbb\n        /* \"contracts/simpleAMM.sol\":1163:1173  msg.sender */\n      caller\n        /* \"contracts/simpleAMM.sol\":1174:1184  amountBOut */\n      dup4\n        /* \"contracts/simpleAMM.sol\":1147:1185  tokenB.transfer(msg.sender,amountBOut) */\n      mload(0x40)\n      dup4\n      0xffffffff\n      and\n      0xe0\n      shl\n      dup2\n      mstore\n      0x04\n      add\n      tag_53\n      swap3\n      swap2\n      swap1\n      tag_54\n      jump\t// in\n    tag_53:\n      0x20\n      mload(0x40)\n      dup1\n      dup4\n      sub\n      dup2\n      0x00\n      dup8\n      gas\n      call\n      iszero\n      dup1\n      iszero\n      tag_56\n      jumpi\n      returndatacopy(0x00, 0x00, returndatasize)\n      revert(0x00, returndatasize)\n    tag_56:\n      pop\n      pop\n      pop\n      pop\n      mload(0x40)\n      returndatasize\n      not(0x1f)\n      0x1f\n      dup3\n      add\n      and\n      dup3\n      add\n      dup1\n      0x40\n      mstore\n      pop\n      dup2\n      add\n      swap1\n      tag_57\n      swap2\n      swap1\n      tag_49\n      jump\t// in\n    tag_57:\n        /* \"contracts/simpleAMM.sol\":1139:1206  require(tokenB.transfer(msg.sender,amountBOut),\"B transfer failed\") */\n      tag_58\n      jumpi\n      mload(0x40)\n      0x08c379a000000000000000000000000000000000000000000000000000000000\n      dup2\n      mstore\n      0x04\n      add\n      tag_59\n      swap1\n      tag_60\n      jump\t// in\n    tag_59:\n      mload(0x40)\n      dup1\n      swap2\n      sub\n      swap1\n      revert\n    tag_58:\n        /* \"contracts/simpleAMM.sol\":1223:1232  amountAIn */\n      dup2\n        /* \"contracts/simpleAMM.sol\":1212:1220  reserveA */\n      0x02\n      0x00\n        /* \"contracts/simpleAMM.sol\":1212:1232  reserveA +=amountAIn */\n      dup3\n      dup3\n      sload\n      tag_61\n      swap2\n      swap1\n      tag_62\n      jump\t// in\n    tag_61:\n      swap3\n      pop\n      pop\n      dup2\n      swap1\n      sstore\n      pop\n        /* \"contracts/simpleAMM.sol\":1249:1259  amountBOut */\n      dup1\n        /* \"contracts/simpleAMM.sol\":1238:1246  reserveB */\n      0x03\n      0x00\n        /* \"contracts/simpleAMM.sol\":1238:1259  reserveB -=amountBOut */\n      dup3\n      dup3\n      sload\n      tag_63\n      swap2\n      swap1\n      tag_64\n      jump\t// in\n    tag_63:\n      swap3\n      pop\n      pop\n      dup2\n      swap1\n      sstore\n      pop\n        /* \"contracts/simpleAMM.sol\":975:1265  {... */\n      pop\n        /* \"contracts/simpleAMM.sol\":929:1265  function swapAForB(uint256 amountAIn) external{... */\n      pop\n      jump\t// out\n        /* \"contracts/simpleAMM.sol\":641:925  function getAmountOut(uint256 amountIn,uint256 reserveIn,uint256 reserveOut) public pure returns (uint256 amountOut){... */\n    tag_19:\n        /* \"contracts/simpleAMM.sol\":739:756  uint256 amountOut */\n      0x00\n        /* \"contracts/simpleAMM.sol\":763:786  uint256 amountInWithFee */\n      0x00\n        /* \"contracts/simpleAMM.sol\":797:800  997 */\n      0x03e5\n        /* \"contracts/simpleAMM.sol\":788:796  amountIn */\n      dup6\n        /* \"contracts/simpleAMM.sol\":788:800  amountIn*997 */\n      tag_66\n      swap2\n      swap1\n      tag_67\n      jump\t// in\n    tag_66:\n        /* \"contracts/simpleAMM.sol\":763:800  uint256 amountInWithFee= amountIn*997 */\n      swap1\n      pop\n        /* \"contracts/simpleAMM.sol\":806:817  uint256 num */\n      0x00\n        /* \"contracts/simpleAMM.sol\":836:846  reserveOut */\n      dup4\n        /* \"contracts/simpleAMM.sol\":820:835  amountInWithFee */\n      dup3\n        /* \"contracts/simpleAMM.sol\":820:846  amountInWithFee*reserveOut */\n      tag_68\n      swap2\n      swap1\n      tag_67\n      jump\t// in\n    tag_68:\n        /* \"contracts/simpleAMM.sol\":806:846  uint256 num = amountInWithFee*reserveOut */\n      swap1\n      pop\n        /* \"contracts/simpleAMM.sol\":852:863  uint256 den */\n      0x00\n        /* \"contracts/simpleAMM.sol\":884:899  amountInWithFee */\n      dup3\n        /* \"contracts/simpleAMM.sol\":876:880  1000 */\n      0x03e8\n        /* \"contracts/simpleAMM.sol\":866:875  reserveIn */\n      dup8\n        /* \"contracts/simpleAMM.sol\":866:880  reserveIn*1000 */\n      tag_69\n      swap2\n      swap1\n      tag_67\n      jump\t// in\n    tag_69:\n        /* \"contracts/simpleAMM.sol\":865:899  (reserveIn*1000) + amountInWithFee */\n      tag_70\n      swap2\n      swap1\n      tag_62\n      jump\t// in\n    tag_70:\n        /* \"contracts/simpleAMM.sol\":852:899  uint256 den =(reserveIn*1000) + amountInWithFee */\n      swap1\n      pop\n        /* \"contracts/simpleAMM.sol\":916:919  den */\n      dup1\n        /* \"contracts/simpleAMM.sol\":912:915  num */\n      dup3\n        /* \"contracts/simpleAMM.sol\":912:919  num/den */\n      tag_71\n      swap2\n      swap1\n      tag_72\n      jump\t// in\n    tag_71:\n        /* \"contracts/simpleAMM.sol\":905:919  return num/den */\n      swap4\n      pop\n      pop\n      pop\n      pop\n        /* \"contracts/simpleAMM.sol\":641:925  function getAmountOut(uint256 amountIn,uint256 reserveIn,uint256 reserveOut) public pure returns (uint256 amountOut){... */\n      swap4\n      swap3\n      pop\n      pop\n      pop\n      jump\t// out\n        /* \"contracts/simpleAMM.sol\":104:123  ERC20 public tokenA */\n    tag_23:\n      0x00\n      0x00\n      swap1\n      sload\n      swap1\n      0x0100\n      exp\n      swap1\n      div\n      0xffffffffffffffffffffffffffffffffffffffff\n      and\n      dup2\n      jump\t// out\n        /* \"contracts/simpleAMM.sol\":183:206  uint256 public reserveB */\n    tag_27:\n      sload(0x03)\n      dup2\n      jump\t// out\n        /* \"contracts/simpleAMM.sol\":129:148  ERC20 public tokenB */\n    tag_30:\n      0x01\n      0x00\n      swap1\n      sload\n      swap1\n      0x0100\n      exp\n      swap1\n      div\n      0xffffffffffffffffffffffffffffffffffffffff\n      and\n      dup2\n      jump\t// out\n        /* \"contracts/simpleAMM.sol\":335:637  function addLiquidity(uint256 amountA,uint256 amountB) external {... */\n    tag_35:\n        /* \"contracts/simpleAMM.sol\":413:419  tokenA */\n      0x00\n      0x00\n      swap1\n      sload\n      swap1\n      0x0100\n      exp\n      swap1\n      div\n      0xffffffffffffffffffffffffffffffffffffffff\n      and\n        /* \"contracts/simpleAMM.sol\":413:432  tokenA.transferFrom */\n      0xffffffffffffffffffffffffffffffffffffffff\n      and\n      0x23b872dd\n        /* \"contracts/simpleAMM.sol\":433:443  msg.sender */\n      caller\n        /* \"contracts/simpleAMM.sol\":452:456  this */\n      address\n        /* \"contracts/simpleAMM.sol\":458:465  amountA */\n      dup6\n        /* \"contracts/simpleAMM.sol\":413:466  tokenA.transferFrom(msg.sender,address(this),amountA) */\n      mload(0x40)\n      dup5\n      0xffffffff\n      and\n      0xe0\n      shl\n      dup2\n      mstore\n      0x04\n      add\n      tag_74\n      swap4\n      swap3\n      swap2\n      swap1\n      tag_45\n      jump\t// in\n    tag_74:\n      0x20\n      mload(0x40)\n      dup1\n      dup4\n      sub\n      dup2\n      0x00\n      dup8\n      gas\n      call\n      iszero\n      dup1\n      iszero\n      tag_76\n      jumpi\n      returndatacopy(0x00, 0x00, returndatasize)\n      revert(0x00, returndatasize)\n    tag_76:\n      pop\n      pop\n      pop\n      pop\n      mload(0x40)\n      returndatasize\n      not(0x1f)\n      0x1f\n      dup3\n      add\n      and\n      dup3\n      add\n      dup1\n      0x40\n      mstore\n      pop\n      dup2\n      add\n      swap1\n      tag_77\n      swap2\n      swap1\n      tag_49\n      jump\t// in\n    tag_77:\n        /* \"contracts/simpleAMM.sol\":405:489  require(tokenA.transferFrom(msg.sender,address(this),amountA), \"A transfer Failed\" ) */\n      tag_78\n      jumpi\n      mload(0x40)\n      0x08c379a000000000000000000000000000000000000000000000000000000000\n      dup2\n      mstore\n      0x04\n      add\n      tag_79\n      swap1\n      tag_80\n      jump\t// in\n    tag_79:\n      mload(0x40)\n      dup1\n      swap2\n      sub\n      swap1\n      revert\n    tag_78:\n        /* \"contracts/simpleAMM.sol\":503:509  tokenB */\n      0x01\n      0x00\n      swap1\n      sload\n      swap1\n      0x0100\n      exp\n      swap1\n      div\n      0xffffffffffffffffffffffffffffffffffffffff\n      and\n        /* \"contracts/simpleAMM.sol\":503:522  tokenB.transferFrom */\n      0xffffffffffffffffffffffffffffffffffffffff\n      and\n      0x23b872dd\n        /* \"contracts/simpleAMM.sol\":523:533  msg.sender */\n      caller\n        /* \"contracts/simpleAMM.sol\":542:546  this */\n      address\n        /* \"contracts/simpleAMM.sol\":548:555  amountB */\n      dup5\n        /* \"contracts/simpleAMM.sol\":503:556  tokenB.transferFrom(msg.sender,address(this),amountB) */\n      mload(0x40)\n      dup5\n      0xffffffff\n      and\n      0xe0\n      shl\n      dup2\n      mstore\n      0x04\n      add\n      tag_81\n      swap4\n      swap3\n      swap2\n      swap1\n      tag_45\n      jump\t// in\n    tag_81:\n      0x20\n      mload(0x40)\n      dup1\n      dup4\n      sub\n      dup2\n      0x00\n      dup8\n      gas\n      call\n      iszero\n      dup1\n      iszero\n      tag_83\n      jumpi\n      returndatacopy(0x00, 0x00, returndatasize)\n      revert(0x00, returndatasize)\n    tag_83:\n      pop\n      pop\n      pop\n      pop\n      mload(0x40)\n      returndatasize\n      not(0x1f)\n      0x1f\n      dup3\n      add\n      and\n      dup3\n      add\n      dup1\n      0x40\n      mstore\n      pop\n      dup2\n      add\n      swap1\n      tag_84\n      swap2\n      swap1\n      tag_49\n      jump\t// in\n    tag_84:\n        /* \"contracts/simpleAMM.sol\":495:579  require(tokenB.transferFrom(msg.sender,address(this),amountB), \"A transfer Failed\" ) */\n      tag_85\n      jumpi\n      mload(0x40)\n      0x08c379a000000000000000000000000000000000000000000000000000000000\n      dup2\n      mstore\n      0x04\n      add\n      tag_86\n      swap1\n      tag_80\n      jump\t// in\n    tag_86:\n      mload(0x40)\n      dup1\n      swap2\n      sub\n      swap1\n      revert\n    tag_85:\n        /* \"contracts/simpleAMM.sol\":598:605  amountA */\n      dup2\n        /* \"contracts/simpleAMM.sol\":587:595  reserveA */\n      0x02\n      0x00\n        /* \"contracts/simpleAMM.sol\":587:605  reserveA +=amountA */\n      dup3\n      dup3\n      sload\n      tag_87\n      swap2\n      swap1\n      tag_62\n      jump\t// in\n    tag_87:\n      swap3\n      pop\n      pop\n      dup2\n      swap1\n      sstore\n      pop\n        /* \"contracts/simpleAMM.sol\":624:631  amountB */\n      dup1\n        /* \"contracts/simpleAMM.sol\":613:621  reserveB */\n      0x03\n      0x00\n        /* \"contracts/simpleAMM.sol\":613:631  reserveB +=amountB */\n      dup3\n      dup3\n      sload\n      tag_88\n      swap2\n      swap1\n      tag_62\n      jump\t// in\n    tag_88:\n      swap3\n      pop\n      pop\n      dup2\n      swap1\n      sstore\n      pop\n        /* \"contracts/simpleAMM.sol\":335:637  function addLiquidity(uint256 amountA,uint256 amountB) external {... */\n      pop\n      pop\n      jump\t// out\n        /* \"contracts/simpleAMM.sol\":154:177  uint256 public reserveA */\n    tag_37:\n      sload(0x02)\n      dup2\n      jump\t// out\n        /* \"contracts/simpleAMM.sol\":1269:1608  function swapBForA(uint256 amountBIn) external {... */\n    tag_41:\n        /* \"contracts/simpleAMM.sol\":1322:1340  uint256 amountAOut */\n      0x00\n        /* \"contracts/simpleAMM.sol\":1343:1386  getAmountOut(amountBIn, reserveB, reserveA) */\n      tag_90\n        /* \"contracts/simpleAMM.sol\":1356:1365  amountBIn */\n      dup3\n        /* \"contracts/simpleAMM.sol\":1367:1375  reserveB */\n      sload(0x03)\n        /* \"contracts/simpleAMM.sol\":1377:1385  reserveA */\n      sload(0x02)\n        /* \"contracts/simpleAMM.sol\":1343:1355  getAmountOut */\n      tag_19\n        /* \"contracts/simpleAMM.sol\":1343:1386  getAmountOut(amountBIn, reserveB, reserveA) */\n      jump\t// in\n    tag_90:\n        /* \"contracts/simpleAMM.sol\":1322:1386  uint256 amountAOut = getAmountOut(amountBIn, reserveB, reserveA) */\n      swap1\n      pop\n        /* \"contracts/simpleAMM.sol\":1400:1406  tokenB */\n      0x01\n      0x00\n      swap1\n      sload\n      swap1\n      0x0100\n      exp\n      swap1\n      div\n      0xffffffffffffffffffffffffffffffffffffffff\n      and\n        /* \"contracts/simpleAMM.sol\":1400:1419  tokenB.transferFrom */\n      0xffffffffffffffffffffffffffffffffffffffff\n      and\n      0x23b872dd\n        /* \"contracts/simpleAMM.sol\":1420:1430  msg.sender */\n      caller\n        /* \"contracts/simpleAMM.sol\":1439:1443  this */\n      address\n        /* \"contracts/simpleAMM.sol\":1445:1454  amountBIn */\n      dup6\n        /* \"contracts/simpleAMM.sol\":1400:1455  tokenB.transferFrom(msg.sender,address(this),amountBIn) */\n      mload(0x40)\n      dup5\n      0xffffffff\n      and\n      0xe0\n      shl\n      dup2\n      mstore\n      0x04\n      add\n      tag_91\n      swap4\n      swap3\n      swap2\n      swap1\n      tag_45\n      jump\t// in\n    tag_91:\n      0x20\n      mload(0x40)\n      dup1\n      dup4\n      sub\n      dup2\n      0x00\n      dup8\n      gas\n      call\n      iszero\n      dup1\n      iszero\n      tag_93\n      jumpi\n      returndatacopy(0x00, 0x00, returndatasize)\n      revert(0x00, returndatasize)\n    tag_93:\n      pop\n      pop\n      pop\n      pop\n      mload(0x40)\n      returndatasize\n      not(0x1f)\n      0x1f\n      dup3\n      add\n      and\n      dup3\n      add\n      dup1\n      0x40\n      mstore\n      pop\n      dup2\n      add\n      swap1\n      tag_94\n      swap2\n      swap1\n      tag_49\n      jump\t// in\n    tag_94:\n        /* \"contracts/simpleAMM.sol\":1392:1476  require(tokenB.transferFrom(msg.sender,address(this),amountBIn),\"B transfer failed\") */\n      tag_95\n      jumpi\n      mload(0x40)\n      0x08c379a000000000000000000000000000000000000000000000000000000000\n      dup2\n      mstore\n      0x04\n      add\n      tag_96\n      swap1\n      tag_60\n      jump\t// in\n    tag_96:\n      mload(0x40)\n      dup1\n      swap2\n      sub\n      swap1\n      revert\n    tag_95:\n        /* \"contracts/simpleAMM.sol\":1490:1496  tokenA */\n      0x00\n      0x00\n      swap1\n      sload\n      swap1\n      0x0100\n      exp\n      swap1\n      div\n      0xffffffffffffffffffffffffffffffffffffffff\n      and\n        /* \"contracts/simpleAMM.sol\":1490:1505  tokenA.transfer */\n      0xffffffffffffffffffffffffffffffffffffffff\n      and\n      0xa9059cbb\n        /* \"contracts/simpleAMM.sol\":1506:1516  msg.sender */\n      caller\n        /* \"contracts/simpleAMM.sol\":1517:1527  amountAOut */\n      dup4\n        /* \"contracts/simpleAMM.sol\":1490:1528  tokenA.transfer(msg.sender,amountAOut) */\n      mload(0x40)\n      dup4\n      0xffffffff\n      and\n      0xe0\n      shl\n      dup2\n      mstore\n      0x04\n      add\n      tag_97\n      swap3\n      swap2\n      swap1\n      tag_54\n      jump\t// in\n    tag_97:\n      0x20\n      mload(0x40)\n      dup1\n      dup4\n      sub\n      dup2\n      0x00\n      dup8\n      gas\n      call\n      iszero\n      dup1\n      iszero\n      tag_99\n      jumpi\n      returndatacopy(0x00, 0x00, returndatasize)\n      revert(0x00, returndatasize)\n    tag_99:\n      pop\n      pop\n      pop\n      pop\n      mload(0x40)\n      returndatasize\n      not(0x1f)\n      0x1f\n      dup3\n      add\n      and\n      dup3\n      add\n      dup1\n      0x40\n      mstore\n      pop\n      dup2\n      add\n      swap1\n      tag_100\n      swap2\n      swap1\n      tag_49\n      jump\t// in\n    tag_100:\n        /* \"contracts/simpleAMM.sol\":1482:1549  require(tokenA.transfer(msg.sender,amountAOut),\"A transfer failed\") */\n      tag_101\n      jumpi\n      mload(0x40)\n      0x08c379a000000000000000000000000000000000000000000000000000000000\n      dup2\n      mstore\n      0x04\n      add\n      tag_102\n      swap1\n      tag_52\n      jump\t// in\n    tag_102:\n      mload(0x40)\n      dup1\n      swap2\n      sub\n      swap1\n      revert\n    tag_101:\n        /* \"contracts/simpleAMM.sol\":1566:1575  amountBIn */\n      dup2\n        /* \"contracts/simpleAMM.sol\":1555:1563  reserveB */\n      0x03\n      0x00\n        /* \"contracts/simpleAMM.sol\":1555:1575  reserveB +=amountBIn */\n      dup3\n      dup3\n      sload\n      tag_103\n      swap2\n      swap1\n      tag_62\n      jump\t// in\n    tag_103:\n      swap3\n      pop\n      pop\n      dup2\n      swap1\n      sstore\n      pop\n        /* \"contracts/simpleAMM.sol\":1592:1602  amountAOut */\n      dup1\n        /* \"contracts/simpleAMM.sol\":1581:1589  reserveA */\n      0x02\n      0x00\n        /* \"contracts/simpleAMM.sol\":1581:1602  reserveA -=amountAOut */\n      dup3\n      dup3\n      sload\n      tag_104\n      swap2\n      swap1\n      tag_64\n      jump\t// in\n    tag_104:\n      swap3\n      pop\n      pop\n      dup2\n      swap1\n      sstore\n      pop\n        /* \"contracts/simpleAMM.sol\":1316:1608  {... */\n      pop\n        /* \"contracts/simpleAMM.sol\":1269:1608  function swapBForA(uint256 amountBIn) external {... */\n      pop\n      jump\t// out\n        /* \"#utility.yul\":88:205   */\n    tag_106:\n        /* \"#utility.yul\":197:198   */\n      0x00\n        /* \"#utility.yul\":194:195   */\n      0x00\n        /* \"#utility.yul\":187:199   */\n      revert\n        /* \"#utility.yul\":334:411   */\n    tag_108:\n        /* \"#utility.yul\":371:378   */\n      0x00\n        /* \"#utility.yul\":400:405   */\n      dup2\n        /* \"#utility.yul\":389:405   */\n      swap1\n      pop\n        /* \"#utility.yul\":334:411   */\n      swap2\n      swap1\n      pop\n      jump\t// out\n        /* \"#utility.yul\":417:539   */\n    tag_109:\n        /* \"#utility.yul\":490:514   */\n      tag_138\n        /* \"#utility.yul\":508:513   */\n      dup2\n        /* \"#utility.yul\":490:514   */\n      tag_108\n      jump\t// in\n    tag_138:\n        /* \"#utility.yul\":483:488   */\n      dup2\n        /* \"#utility.yul\":480:515   */\n      eq\n        /* \"#utility.yul\":470:533   */\n      tag_139\n      jumpi\n        /* \"#utility.yul\":529:530   */\n      0x00\n        /* \"#utility.yul\":526:527   */\n      0x00\n        /* \"#utility.yul\":519:531   */\n      revert\n        /* \"#utility.yul\":470:533   */\n    tag_139:\n        /* \"#utility.yul\":417:539   */\n      pop\n      jump\t// out\n        /* \"#utility.yul\":545:684   */\n    tag_110:\n        /* \"#utility.yul\":591:596   */\n      0x00\n        /* \"#utility.yul\":629:635   */\n      dup2\n        /* \"#utility.yul\":616:636   */\n      calldataload\n        /* \"#utility.yul\":607:636   */\n      swap1\n      pop\n        /* \"#utility.yul\":645:678   */\n      tag_141\n        /* \"#utility.yul\":672:677   */\n      dup2\n        /* \"#utility.yul\":645:678   */\n      tag_109\n      jump\t// in\n    tag_141:\n        /* \"#utility.yul\":545:684   */\n      swap3\n      swap2\n      pop\n      pop\n      jump\t// out\n        /* \"#utility.yul\":690:1019   */\n    tag_14:\n        /* \"#utility.yul\":749:755   */\n      0x00\n        /* \"#utility.yul\":798:800   */\n      0x20\n        /* \"#utility.yul\":786:795   */\n      dup3\n        /* \"#utility.yul\":777:784   */\n      dup5\n        /* \"#utility.yul\":773:796   */\n      sub\n        /* \"#utility.yul\":769:801   */\n      slt\n        /* \"#utility.yul\":766:885   */\n      iszero\n      tag_143\n      jumpi\n        /* \"#utility.yul\":804:883   */\n      tag_144\n      tag_106\n      jump\t// in\n    tag_144:\n        /* \"#utility.yul\":766:885   */\n    tag_143:\n        /* \"#utility.yul\":924:925   */\n      0x00\n        /* \"#utility.yul\":949:1002   */\n      tag_145\n        /* \"#utility.yul\":994:1001   */\n      dup5\n        /* \"#utility.yul\":985:991   */\n      dup3\n        /* \"#utility.yul\":974:983   */\n      dup6\n        /* \"#utility.yul\":970:992   */\n      add\n        /* \"#utility.yul\":949:1002   */\n      tag_110\n      jump\t// in\n    tag_145:\n        /* \"#utility.yul\":939:1002   */\n      swap2\n      pop\n        /* \"#utility.yul\":895:1012   */\n      pop\n        /* \"#utility.yul\":690:1019   */\n      swap3\n      swap2\n      pop\n      pop\n      jump\t// out\n        /* \"#utility.yul\":1025:1644   */\n    tag_18:\n        /* \"#utility.yul\":1102:1108   */\n      0x00\n        /* \"#utility.yul\":1110:1116   */\n      0x00\n        /* \"#utility.yul\":1118:1124   */\n      0x00\n        /* \"#utility.yul\":1167:1169   */\n      0x60\n        /* \"#utility.yul\":1155:1164   */\n      dup5\n        /* \"#utility.yul\":1146:1153   */\n      dup7\n        /* \"#utility.yul\":1142:1165   */\n      sub\n        /* \"#utility.yul\":1138:1170   */\n      slt\n        /* \"#utility.yul\":1135:1254   */\n      iszero\n      tag_147\n      jumpi\n        /* \"#utility.yul\":1173:1252   */\n      tag_148\n      tag_106\n      jump\t// in\n    tag_148:\n        /* \"#utility.yul\":1135:1254   */\n    tag_147:\n        /* \"#utility.yul\":1293:1294   */\n      0x00\n        /* \"#utility.yul\":1318:1371   */\n      tag_149\n        /* \"#utility.yul\":1363:1370   */\n      dup7\n        /* \"#utility.yul\":1354:1360   */\n      dup3\n        /* \"#utility.yul\":1343:1352   */\n      dup8\n        /* \"#utility.yul\":1339:1361   */\n      add\n        /* \"#utility.yul\":1318:1371   */\n      tag_110\n      jump\t// in\n    tag_149:\n        /* \"#utility.yul\":1308:1371   */\n      swap4\n      pop\n        /* \"#utility.yul\":1264:1381   */\n      pop\n        /* \"#utility.yul\":1420:1422   */\n      0x20\n        /* \"#utility.yul\":1446:1499   */\n      tag_150\n        /* \"#utility.yul\":1491:1498   */\n      dup7\n        /* \"#utility.yul\":1482:1488   */\n      dup3\n        /* \"#utility.yul\":1471:1480   */\n      dup8\n        /* \"#utility.yul\":1467:1489   */\n      add\n        /* \"#utility.yul\":1446:1499   */\n      tag_110\n      jump\t// in\n    tag_150:\n        /* \"#utility.yul\":1436:1499   */\n      swap3\n      pop\n        /* \"#utility.yul\":1391:1509   */\n      pop\n        /* \"#utility.yul\":1548:1550   */\n      0x40\n        /* \"#utility.yul\":1574:1627   */\n      tag_151\n        /* \"#utility.yul\":1619:1626   */\n      dup7\n        /* \"#utility.yul\":1610:1616   */\n      dup3\n        /* \"#utility.yul\":1599:1608   */\n      dup8\n        /* \"#utility.yul\":1595:1617   */\n      add\n        /* \"#utility.yul\":1574:1627   */\n      tag_110\n      jump\t// in\n    tag_151:\n        /* \"#utility.yul\":1564:1627   */\n      swap2\n      pop\n        /* \"#utility.yul\":1519:1637   */\n      pop\n        /* \"#utility.yul\":1025:1644   */\n      swap3\n      pop\n      swap3\n      pop\n      swap3\n      jump\t// out\n        /* \"#utility.yul\":1650:1768   */\n    tag_111:\n        /* \"#utility.yul\":1737:1761   */\n      tag_153\n        /* \"#utility.yul\":1755:1760   */\n      dup2\n        /* \"#utility.yul\":1737:1761   */\n      tag_108\n      jump\t// in\n    tag_153:\n        /* \"#utility.yul\":1732:1735   */\n      dup3\n        /* \"#utility.yul\":1725:1762   */\n      mstore\n        /* \"#utility.yul\":1650:1768   */\n      pop\n      pop\n      jump\t// out\n        /* \"#utility.yul\":1774:1996   */\n    tag_21:\n        /* \"#utility.yul\":1867:1871   */\n      0x00\n        /* \"#utility.yul\":1905:1907   */\n      0x20\n        /* \"#utility.yul\":1894:1903   */\n      dup3\n        /* \"#utility.yul\":1890:1908   */\n      add\n        /* \"#utility.yul\":1882:1908   */\n      swap1\n      pop\n        /* \"#utility.yul\":1918:1989   */\n      tag_155\n        /* \"#utility.yul\":1986:1987   */\n      0x00\n        /* \"#utility.yul\":1975:1984   */\n      dup4\n        /* \"#utility.yul\":1971:1988   */\n      add\n        /* \"#utility.yul\":1962:1968   */\n      dup5\n        /* \"#utility.yul\":1918:1989   */\n      tag_111\n      jump\t// in\n    tag_155:\n        /* \"#utility.yul\":1774:1996   */\n      swap3\n      swap2\n      pop\n      pop\n      jump\t// out\n        /* \"#utility.yul\":2002:2128   */\n    tag_112:\n        /* \"#utility.yul\":2039:2046   */\n      0x00\n        /* \"#utility.yul\":2079:2121   */\n      0xffffffffffffffffffffffffffffffffffffffff\n        /* \"#utility.yul\":2072:2077   */\n      dup3\n        /* \"#utility.yul\":2068:2122   */\n      and\n        /* \"#utility.yul\":2057:2122   */\n      swap1\n      pop\n        /* \"#utility.yul\":2002:2128   */\n      swap2\n      swap1\n      pop\n      jump\t// out\n        /* \"#utility.yul\":2134:2194   */\n    tag_113:\n        /* \"#utility.yul\":2162:2165   */\n      0x00\n        /* \"#utility.yul\":2183:2188   */\n      dup2\n        /* \"#utility.yul\":2176:2188   */\n      swap1\n      pop\n        /* \"#utility.yul\":2134:2194   */\n      swap2\n      swap1\n      pop\n      jump\t// out\n        /* \"#utility.yul\":2200:2342   */\n    tag_114:\n        /* \"#utility.yul\":2250:2259   */\n      0x00\n        /* \"#utility.yul\":2283:2336   */\n      tag_159\n        /* \"#utility.yul\":2301:2335   */\n      tag_160\n        /* \"#utility.yul\":2310:2334   */\n      tag_161\n        /* \"#utility.yul\":2328:2333   */\n      dup5\n        /* \"#utility.yul\":2310:2334   */\n      tag_112\n      jump\t// in\n    tag_161:\n        /* \"#utility.yul\":2301:2335   */\n      tag_113\n      jump\t// in\n    tag_160:\n        /* \"#utility.yul\":2283:2336   */\n      tag_112\n      jump\t// in\n    tag_159:\n        /* \"#utility.yul\":2270:2336   */\n      swap1\n      pop\n        /* \"#utility.yul\":2200:2342   */\n      swap2\n      swap1\n      pop\n      jump\t// out\n        /* \"#utility.yul\":2348:2474   */\n    tag_115:\n        /* \"#utility.yul\":2398:2407   */\n      0x00\n        /* \"#utility.yul\":2431:2468   */\n      tag_163\n        /* \"#utility.yul\":2462:2467   */\n      dup3\n        /* \"#utility.yul\":2431:2468   */\n      tag_114\n      jump\t// in\n    tag_163:\n        /* \"#utility.yul\":2418:2468   */\n      swap1\n      pop\n        /* \"#utility.yul\":2348:2474   */\n      swap2\n      swap1\n      pop\n      jump\t// out\n        /* \"#utility.yul\":2480:2619   */\n    tag_116:\n        /* \"#utility.yul\":2543:2552   */\n      0x00\n        /* \"#utility.yul\":2576:2613   */\n      tag_165\n        /* \"#utility.yul\":2607:2612   */\n      dup3\n        /* \"#utility.yul\":2576:2613   */\n      tag_115\n      jump\t// in\n    tag_165:\n        /* \"#utility.yul\":2563:2613   */\n      swap1\n      pop\n        /* \"#utility.yul\":2480:2619   */\n      swap2\n      swap1\n      pop\n      jump\t// out\n        /* \"#utility.yul\":2625:2782   */\n    tag_117:\n        /* \"#utility.yul\":2725:2775   */\n      tag_167\n        /* \"#utility.yul\":2769:2774   */\n      dup2\n        /* \"#utility.yul\":2725:2775   */\n      tag_116\n      jump\t// in\n    tag_167:\n        /* \"#utility.yul\":2720:2723   */\n      dup3\n        /* \"#utility.yul\":2713:2776   */\n      mstore\n        /* \"#utility.yul\":2625:2782   */\n      pop\n      pop\n      jump\t// out\n        /* \"#utility.yul\":2788:3036   */\n    tag_25:\n        /* \"#utility.yul\":2894:2898   */\n      0x00\n        /* \"#utility.yul\":2932:2934   */\n      0x20\n        /* \"#utility.yul\":2921:2930   */\n      dup3\n        /* \"#utility.yul\":2917:2935   */\n      add\n        /* \"#utility.yul\":2909:2935   */\n      swap1\n      pop\n        /* \"#utility.yul\":2945:3029   */\n      tag_169\n        /* \"#utility.yul\":3026:3027   */\n      0x00\n        /* \"#utility.yul\":3015:3024   */\n      dup4\n        /* \"#utility.yul\":3011:3028   */\n      add\n        /* \"#utility.yul\":3002:3008   */\n      dup5\n        /* \"#utility.yul\":2945:3029   */\n      tag_117\n      jump\t// in\n    tag_169:\n        /* \"#utility.yul\":2788:3036   */\n      swap3\n      swap2\n      pop\n      pop\n      jump\t// out\n        /* \"#utility.yul\":3042:3516   */\n    tag_34:\n        /* \"#utility.yul\":3110:3116   */\n      0x00\n        /* \"#utility.yul\":3118:3124   */\n      0x00\n        /* \"#utility.yul\":3167:3169   */\n      0x40\n        /* \"#utility.yul\":3155:3164   */\n      dup4\n        /* \"#utility.yul\":3146:3153   */\n      dup6\n        /* \"#utility.yul\":3142:3165   */\n      sub\n        /* \"#utility.yul\":3138:3170   */\n      slt\n        /* \"#utility.yul\":3135:3254   */\n      iszero\n      tag_171\n      jumpi\n        /* \"#utility.yul\":3173:3252   */\n      tag_172\n      tag_106\n      jump\t// in\n    tag_172:\n        /* \"#utility.yul\":3135:3254   */\n    tag_171:\n        /* \"#utility.yul\":3293:3294   */\n      0x00\n        /* \"#utility.yul\":3318:3371   */\n      tag_173\n        /* \"#utility.yul\":3363:3370   */\n      dup6\n        /* \"#utility.yul\":3354:3360   */\n      dup3\n        /* \"#utility.yul\":3343:3352   */\n      dup7\n        /* \"#utility.yul\":3339:3361   */\n      add\n        /* \"#utility.yul\":3318:3371   */\n      tag_110\n      jump\t// in\n    tag_173:\n        /* \"#utility.yul\":3308:3371   */\n      swap3\n      pop\n        /* \"#utility.yul\":3264:3381   */\n      pop\n        /* \"#utility.yul\":3420:3422   */\n      0x20\n        /* \"#utility.yul\":3446:3499   */\n      tag_174\n        /* \"#utility.yul\":3491:3498   */\n      dup6\n        /* \"#utility.yul\":3482:3488   */\n      dup3\n        /* \"#utility.yul\":3471:3480   */\n      dup7\n        /* \"#utility.yul\":3467:3489   */\n      add\n        /* \"#utility.yul\":3446:3499   */\n      tag_110\n      jump\t// in\n    tag_174:\n        /* \"#utility.yul\":3436:3499   */\n      swap2\n      pop\n        /* \"#utility.yul\":3391:3509   */\n      pop\n        /* \"#utility.yul\":3042:3516   */\n      swap3\n      pop\n      swap3\n      swap1\n      pop\n      jump\t// out\n        /* \"#utility.yul\":3522:3618   */\n    tag_118:\n        /* \"#utility.yul\":3559:3566   */\n      0x00\n        /* \"#utility.yul\":3588:3612   */\n      tag_176\n        /* \"#utility.yul\":3606:3611   */\n      dup3\n        /* \"#utility.yul\":3588:3612   */\n      tag_112\n      jump\t// in\n    tag_176:\n        /* \"#utility.yul\":3577:3612   */\n      swap1\n      pop\n        /* \"#utility.yul\":3522:3618   */\n      swap2\n      swap1\n      pop\n      jump\t// out\n        /* \"#utility.yul\":3624:3742   */\n    tag_119:\n        /* \"#utility.yul\":3711:3735   */\n      tag_178\n        /* \"#utility.yul\":3729:3734   */\n      dup2\n        /* \"#utility.yul\":3711:3735   */\n      tag_118\n      jump\t// in\n    tag_178:\n        /* \"#utility.yul\":3706:3709   */\n      dup3\n        /* \"#utility.yul\":3699:3736   */\n      mstore\n        /* \"#utility.yul\":3624:3742   */\n      pop\n      pop\n      jump\t// out\n        /* \"#utility.yul\":3748:4190   */\n    tag_45:\n        /* \"#utility.yul\":3897:3901   */\n      0x00\n        /* \"#utility.yul\":3935:3937   */\n      0x60\n        /* \"#utility.yul\":3924:3933   */\n      dup3\n        /* \"#utility.yul\":3920:3938   */\n      add\n        /* \"#utility.yul\":3912:3938   */\n      swap1\n      pop\n        /* \"#utility.yul\":3948:4019   */\n      tag_180\n        /* \"#utility.yul\":4016:4017   */\n      0x00\n        /* \"#utility.yul\":4005:4014   */\n      dup4\n        /* \"#utility.yul\":4001:4018   */\n      add\n        /* \"#utility.yul\":3992:3998   */\n      dup7\n        /* \"#utility.yul\":3948:4019   */\n      tag_119\n      jump\t// in\n    tag_180:\n        /* \"#utility.yul\":4029:4101   */\n      tag_181\n        /* \"#utility.yul\":4097:4099   */\n      0x20\n        /* \"#utility.yul\":4086:4095   */\n      dup4\n        /* \"#utility.yul\":4082:4100   */\n      add\n        /* \"#utility.yul\":4073:4079   */\n      dup6\n        /* \"#utility.yul\":4029:4101   */\n      tag_119\n      jump\t// in\n    tag_181:\n        /* \"#utility.yul\":4111:4183   */\n      tag_182\n        /* \"#utility.yul\":4179:4181   */\n      0x40\n        /* \"#utility.yul\":4168:4177   */\n      dup4\n        /* \"#utility.yul\":4164:4182   */\n      add\n        /* \"#utility.yul\":4155:4161   */\n      dup5\n        /* \"#utility.yul\":4111:4183   */\n      tag_111\n      jump\t// in\n    tag_182:\n        /* \"#utility.yul\":3748:4190   */\n      swap5\n      swap4\n      pop\n      pop\n      pop\n      pop\n      jump\t// out\n        /* \"#utility.yul\":4196:4286   */\n    tag_120:\n        /* \"#utility.yul\":4230:4237   */\n      0x00\n        /* \"#utility.yul\":4273:4278   */\n      dup2\n        /* \"#utility.yul\":4266:4279   */\n      iszero\n        /* \"#utility.yul\":4259:4280   */\n      iszero\n        /* \"#utility.yul\":4248:4280   */\n      swap1\n      pop\n        /* \"#utility.yul\":4196:4286   */\n      swap2\n      swap1\n      pop\n      jump\t// out\n        /* \"#utility.yul\":4292:4408   */\n    tag_121:\n        /* \"#utility.yul\":4362:4383   */\n      tag_185\n        /* \"#utility.yul\":4377:4382   */\n      dup2\n        /* \"#utility.yul\":4362:4383   */\n      tag_120\n      jump\t// in\n    tag_185:\n        /* \"#utility.yul\":4355:4360   */\n      dup2\n        /* \"#utility.yul\":4352:4384   */\n      eq\n        /* \"#utility.yul\":4342:4402   */\n      tag_186\n      jumpi\n        /* \"#utility.yul\":4398:4399   */\n      0x00\n        /* \"#utility.yul\":4395:4396   */\n      0x00\n        /* \"#utility.yul\":4388:4400   */\n      revert\n        /* \"#utility.yul\":4342:4402   */\n    tag_186:\n        /* \"#utility.yul\":4292:4408   */\n      pop\n      jump\t// out\n        /* \"#utility.yul\":4414:4551   */\n    tag_122:\n        /* \"#utility.yul\":4468:4473   */\n      0x00\n        /* \"#utility.yul\":4499:4505   */\n      dup2\n        /* \"#utility.yul\":4493:4506   */\n      mload\n        /* \"#utility.yul\":4484:4506   */\n      swap1\n      pop\n        /* \"#utility.yul\":4515:4545   */\n      tag_188\n        /* \"#utility.yul\":4539:4544   */\n      dup2\n        /* \"#utility.yul\":4515:4545   */\n      tag_121\n      jump\t// in\n    tag_188:\n        /* \"#utility.yul\":4414:4551   */\n      swap3\n      swap2\n      pop\n      pop\n      jump\t// out\n        /* \"#utility.yul\":4557:4902   */\n    tag_49:\n        /* \"#utility.yul\":4624:4630   */\n      0x00\n        /* \"#utility.yul\":4673:4675   */\n      0x20\n        /* \"#utility.yul\":4661:4670   */\n      dup3\n        /* \"#utility.yul\":4652:4659   */\n      dup5\n        /* \"#utility.yul\":4648:4671   */\n      sub\n        /* \"#utility.yul\":4644:4676   */\n      slt\n        /* \"#utility.yul\":4641:4760   */\n      iszero\n      tag_190\n      jumpi\n        /* \"#utility.yul\":4679:4758   */\n      tag_191\n      tag_106\n      jump\t// in\n    tag_191:\n        /* \"#utility.yul\":4641:4760   */\n    tag_190:\n        /* \"#utility.yul\":4799:4800   */\n      0x00\n        /* \"#utility.yul\":4824:4885   */\n      tag_192\n        /* \"#utility.yul\":4877:4884   */\n      dup5\n        /* \"#utility.yul\":4868:4874   */\n      dup3\n        /* \"#utility.yul\":4857:4866   */\n      dup6\n        /* \"#utility.yul\":4853:4875   */\n      add\n        /* \"#utility.yul\":4824:4885   */\n      tag_122\n      jump\t// in\n    tag_192:\n        /* \"#utility.yul\":4814:4885   */\n      swap2\n      pop\n        /* \"#utility.yul\":4770:4895   */\n      pop\n        /* \"#utility.yul\":4557:4902   */\n      swap3\n      swap2\n      pop\n      pop\n      jump\t// out\n        /* \"#utility.yul\":4908:5077   */\n    tag_123:\n        /* \"#utility.yul\":4992:5003   */\n      0x00\n        /* \"#utility.yul\":5026:5032   */\n      dup3\n        /* \"#utility.yul\":5021:5024   */\n      dup3\n        /* \"#utility.yul\":5014:5033   */\n      mstore\n        /* \"#utility.yul\":5066:5070   */\n      0x20\n        /* \"#utility.yul\":5061:5064   */\n      dup3\n        /* \"#utility.yul\":5057:5071   */\n      add\n        /* \"#utility.yul\":5042:5071   */\n      swap1\n      pop\n        /* \"#utility.yul\":4908:5077   */\n      swap3\n      swap2\n      pop\n      pop\n      jump\t// out\n        /* \"#utility.yul\":5083:5250   */\n    tag_124:\n        /* \"#utility.yul\":5223:5242   */\n      0x41207472616e73666572206661696c6564000000000000000000000000000000\n        /* \"#utility.yul\":5219:5220   */\n      0x00\n        /* \"#utility.yul\":5211:5217   */\n      dup3\n        /* \"#utility.yul\":5207:5221   */\n      add\n        /* \"#utility.yul\":5200:5243   */\n      mstore\n        /* \"#utility.yul\":5083:5250   */\n      pop\n      jump\t// out\n        /* \"#utility.yul\":5256:5622   */\n    tag_125:\n        /* \"#utility.yul\":5398:5401   */\n      0x00\n        /* \"#utility.yul\":5419:5486   */\n      tag_196\n        /* \"#utility.yul\":5483:5485   */\n      0x11\n        /* \"#utility.yul\":5478:5481   */\n      dup4\n        /* \"#utility.yul\":5419:5486   */\n      tag_123\n      jump\t// in\n    tag_196:\n        /* \"#utility.yul\":5412:5486   */\n      swap2\n      pop\n        /* \"#utility.yul\":5495:5588   */\n      tag_197\n        /* \"#utility.yul\":5584:5587   */\n      dup3\n        /* \"#utility.yul\":5495:5588   */\n      tag_124\n      jump\t// in\n    tag_197:\n        /* \"#utility.yul\":5613:5615   */\n      0x20\n        /* \"#utility.yul\":5608:5611   */\n      dup3\n        /* \"#utility.yul\":5604:5616   */\n      add\n        /* \"#utility.yul\":5597:5616   */\n      swap1\n      pop\n        /* \"#utility.yul\":5256:5622   */\n      swap2\n      swap1\n      pop\n      jump\t// out\n        /* \"#utility.yul\":5628:6047   */\n    tag_52:\n        /* \"#utility.yul\":5794:5798   */\n      0x00\n        /* \"#utility.yul\":5832:5834   */\n      0x20\n        /* \"#utility.yul\":5821:5830   */\n      dup3\n        /* \"#utility.yul\":5817:5835   */\n      add\n        /* \"#utility.yul\":5809:5835   */\n      swap1\n      pop\n        /* \"#utility.yul\":5881:5890   */\n      dup2\n        /* \"#utility.yul\":5875:5879   */\n      dup2\n        /* \"#utility.yul\":5871:5891   */\n      sub\n        /* \"#utility.yul\":5867:5868   */\n      0x00\n        /* \"#utility.yul\":5856:5865   */\n      dup4\n        /* \"#utility.yul\":5852:5869   */\n      add\n        /* \"#utility.yul\":5845:5892   */\n      mstore\n        /* \"#utility.yul\":5909:6040   */\n      tag_199\n        /* \"#utility.yul\":6035:6039   */\n      dup2\n        /* \"#utility.yul\":5909:6040   */\n      tag_125\n      jump\t// in\n    tag_199:\n        /* \"#utility.yul\":5901:6040   */\n      swap1\n      pop\n        /* \"#utility.yul\":5628:6047   */\n      swap2\n      swap1\n      pop\n      jump\t// out\n        /* \"#utility.yul\":6053:6385   */\n    tag_54:\n        /* \"#utility.yul\":6174:6178   */\n      0x00\n        /* \"#utility.yul\":6212:6214   */\n      0x40\n        /* \"#utility.yul\":6201:6210   */\n      dup3\n        /* \"#utility.yul\":6197:6215   */\n      add\n        /* \"#utility.yul\":6189:6215   */\n      swap1\n      pop\n        /* \"#utility.yul\":6225:6296   */\n      tag_201\n        /* \"#utility.yul\":6293:6294   */\n      0x00\n        /* \"#utility.yul\":6282:6291   */\n      dup4\n        /* \"#utility.yul\":6278:6295   */\n      add\n        /* \"#utility.yul\":6269:6275   */\n      dup6\n        /* \"#utility.yul\":6225:6296   */\n      tag_119\n      jump\t// in\n    tag_201:\n        /* \"#utility.yul\":6306:6378   */\n      tag_202\n        /* \"#utility.yul\":6374:6376   */\n      0x20\n        /* \"#utility.yul\":6363:6372   */\n      dup4\n        /* \"#utility.yul\":6359:6377   */\n      add\n        /* \"#utility.yul\":6350:6356   */\n      dup5\n        /* \"#utility.yul\":6306:6378   */\n      tag_111\n      jump\t// in\n    tag_202:\n        /* \"#utility.yul\":6053:6385   */\n      swap4\n      swap3\n      pop\n      pop\n      pop\n      jump\t// out\n        /* \"#utility.yul\":6391:6558   */\n    tag_126:\n        /* \"#utility.yul\":6531:6550   */\n      0x42207472616e73666572206661696c6564000000000000000000000000000000\n        /* \"#utility.yul\":6527:6528   */\n      0x00\n        /* \"#utility.yul\":6519:6525   */\n      dup3\n        /* \"#utility.yul\":6515:6529   */\n      add\n        /* \"#utility.yul\":6508:6551   */\n      mstore\n        /* \"#utility.yul\":6391:6558   */\n      pop\n      jump\t// out\n        /* \"#utility.yul\":6564:6930   */\n    tag_127:\n        /* \"#utility.yul\":6706:6709   */\n      0x00\n        /* \"#utility.yul\":6727:6794   */\n      tag_205\n        /* \"#utility.yul\":6791:6793   */\n      0x11\n        /* \"#utility.yul\":6786:6789   */\n      dup4\n        /* \"#utility.yul\":6727:6794   */\n      tag_123\n      jump\t// in\n    tag_205:\n        /* \"#utility.yul\":6720:6794   */\n      swap2\n      pop\n        /* \"#utility.yul\":6803:6896   */\n      tag_206\n        /* \"#utility.yul\":6892:6895   */\n      dup3\n        /* \"#utility.yul\":6803:6896   */\n      tag_126\n      jump\t// in\n    tag_206:\n        /* \"#utility.yul\":6921:6923   */\n      0x20\n        /* \"#utility.yul\":6916:6919   */\n      dup3\n        /* \"#utility.yul\":6912:6924   */\n      add\n        /* \"#utility.yul\":6905:6924   */\n      swap1\n      pop\n        /* \"#utility.yul\":6564:6930   */\n      swap2\n      swap1\n      pop\n      jump\t// out\n        /* \"#utility.yul\":6936:7355   */\n    tag_60:\n        /* \"#utility.yul\":7102:7106   */\n      0x00\n        /* \"#utility.yul\":7140:7142   */\n      0x20\n        /* \"#utility.yul\":7129:7138   */\n      dup3\n        /* \"#utility.yul\":7125:7143   */\n      add\n        /* \"#utility.yul\":7117:7143   */\n      swap1\n      pop\n        /* \"#utility.yul\":7189:7198   */\n      dup2\n        /* \"#utility.yul\":7183:7187   */\n      dup2\n        /* \"#utility.yul\":7179:7199   */\n      sub\n        /* \"#utility.yul\":7175:7176   */\n      0x00\n        /* \"#utility.yul\":7164:7173   */\n      dup4\n        /* \"#utility.yul\":7160:7177   */\n      add\n        /* \"#utility.yul\":7153:7200   */\n      mstore\n        /* \"#utility.yul\":7217:7348   */\n      tag_208\n        /* \"#utility.yul\":7343:7347   */\n      dup2\n        /* \"#utility.yul\":7217:7348   */\n      tag_127\n      jump\t// in\n    tag_208:\n        /* \"#utility.yul\":7209:7348   */\n      swap1\n      pop\n        /* \"#utility.yul\":6936:7355   */\n      swap2\n      swap1\n      pop\n      jump\t// out\n        /* \"#utility.yul\":7361:7541   */\n    tag_128:\n        /* \"#utility.yul\":7409:7486   */\n      0x4e487b7100000000000000000000000000000000000000000000000000000000\n        /* \"#utility.yul\":7406:7407   */\n      0x00\n        /* \"#utility.yul\":7399:7487   */\n      mstore\n        /* \"#utility.yul\":7506:7510   */\n      0x11\n        /* \"#utility.yul\":7503:7504   */\n      0x04\n        /* \"#utility.yul\":7496:7511   */\n      mstore\n        /* \"#utility.yul\":7530:7534   */\n      0x24\n        /* \"#utility.yul\":7527:7528   */\n      0x00\n        /* \"#utility.yul\":7520:7535   */\n      revert\n        /* \"#utility.yul\":7547:7738   */\n    tag_62:\n        /* \"#utility.yul\":7587:7590   */\n      0x00\n        /* \"#utility.yul\":7606:7626   */\n      tag_211\n        /* \"#utility.yul\":7624:7625   */\n      dup3\n        /* \"#utility.yul\":7606:7626   */\n      tag_108\n      jump\t// in\n    tag_211:\n        /* \"#utility.yul\":7601:7626   */\n      swap2\n      pop\n        /* \"#utility.yul\":7640:7660   */\n      tag_212\n        /* \"#utility.yul\":7658:7659   */\n      dup4\n        /* \"#utility.yul\":7640:7660   */\n      tag_108\n      jump\t// in\n    tag_212:\n        /* \"#utility.yul\":7635:7660   */\n      swap3\n      pop\n        /* \"#utility.yul\":7683:7684   */\n      dup3\n        /* \"#utility.yul\":7680:7681   */\n      dup3\n        /* \"#utility.yul\":7676:7685   */\n      add\n        /* \"#utility.yul\":7669:7685   */\n      swap1\n      pop\n        /* \"#utility.yul\":7704:7707   */\n      dup1\n        /* \"#utility.yul\":7701:7702   */\n      dup3\n        /* \"#utility.yul\":7698:7708   */\n      gt\n        /* \"#utility.yul\":7695:7731   */\n      iszero\n      tag_213\n      jumpi\n        /* \"#utility.yul\":7711:7729   */\n      tag_214\n      tag_128\n      jump\t// in\n    tag_214:\n        /* \"#utility.yul\":7695:7731   */\n    tag_213:\n        /* \"#utility.yul\":7547:7738   */\n      swap3\n      swap2\n      pop\n      pop\n      jump\t// out\n        /* \"#utility.yul\":7744:7938   */\n    tag_64:\n        /* \"#utility.yul\":7784:7788   */\n      0x00\n        /* \"#utility.yul\":7804:7824   */\n      tag_216\n        /* \"#utility.yul\":7822:7823   */\n      dup3\n        /* \"#utility.yul\":7804:7824   */\n      tag_108\n      jump\t// in\n    tag_216:\n        /* \"#utility.yul\":7799:7824   */\n      swap2\n      pop\n        /* \"#utility.yul\":7838:7858   */\n      tag_217\n        /* \"#utility.yul\":7856:7857   */\n      dup4\n        /* \"#utility.yul\":7838:7858   */\n      tag_108\n      jump\t// in\n    tag_217:\n        /* \"#utility.yul\":7833:7858   */\n      swap3\n      pop\n        /* \"#utility.yul\":7882:7883   */\n      dup3\n        /* \"#utility.yul\":7879:7880   */\n      dup3\n        /* \"#utility.yul\":7875:7884   */\n      sub\n        /* \"#utility.yul\":7867:7884   */\n      swap1\n      pop\n        /* \"#utility.yul\":7906:7907   */\n      dup2\n        /* \"#utility.yul\":7900:7904   */\n      dup2\n        /* \"#utility.yul\":7897:7908   */\n      gt\n        /* \"#utility.yul\":7894:7931   */\n      iszero\n      tag_218\n      jumpi\n        /* \"#utility.yul\":7911:7929   */\n      tag_219\n      tag_128\n      jump\t// in\n    tag_219:\n        /* \"#utility.yul\":7894:7931   */\n    tag_218:\n        /* \"#utility.yul\":7744:7938   */\n      swap3\n      swap2\n      pop\n      pop\n      jump\t// out\n        /* \"#utility.yul\":7944:8354   */\n    tag_67:\n        /* \"#utility.yul\":7984:7991   */\n      0x00\n        /* \"#utility.yul\":8007:8027   */\n      tag_221\n        /* \"#utility.yul\":8025:8026   */\n      dup3\n        /* \"#utility.yul\":8007:8027   */\n      tag_108\n      jump\t// in\n    tag_221:\n        /* \"#utility.yul\":8002:8027   */\n      swap2\n      pop\n        /* \"#utility.yul\":8041:8061   */\n      tag_222\n        /* \"#utility.yul\":8059:8060   */\n      dup4\n        /* \"#utility.yul\":8041:8061   */\n      tag_108\n      jump\t// in\n    tag_222:\n        /* \"#utility.yul\":8036:8061   */\n      swap3\n      pop\n        /* \"#utility.yul\":8096:8097   */\n      dup3\n        /* \"#utility.yul\":8093:8094   */\n      dup3\n        /* \"#utility.yul\":8089:8098   */\n      mul\n        /* \"#utility.yul\":8118:8148   */\n      tag_223\n        /* \"#utility.yul\":8136:8147   */\n      dup2\n        /* \"#utility.yul\":8118:8148   */\n      tag_108\n      jump\t// in\n    tag_223:\n        /* \"#utility.yul\":8107:8148   */\n      swap2\n      pop\n        /* \"#utility.yul\":8297:8298   */\n      dup3\n        /* \"#utility.yul\":8288:8295   */\n      dup3\n        /* \"#utility.yul\":8284:8299   */\n      div\n        /* \"#utility.yul\":8281:8282   */\n      dup5\n        /* \"#utility.yul\":8278:8300   */\n      eq\n        /* \"#utility.yul\":8258:8259   */\n      dup4\n        /* \"#utility.yul\":8251:8260   */\n      iszero\n        /* \"#utility.yul\":8231:8314   */\n      or\n        /* \"#utility.yul\":8208:8347   */\n      tag_224\n      jumpi\n        /* \"#utility.yul\":8327:8345   */\n      tag_225\n      tag_128\n      jump\t// in\n    tag_225:\n        /* \"#utility.yul\":8208:8347   */\n    tag_224:\n        /* \"#utility.yul\":7992:8354   */\n      pop\n        /* \"#utility.yul\":7944:8354   */\n      swap3\n      swap2\n      pop\n      pop\n      jump\t// out\n        /* \"#utility.yul\":8360:8540   */\n    tag_129:\n        /* \"#utility.yul\":8408:8485   */\n      0x4e487b7100000000000000000000000000000000000000000000000000000000\n        /* \"#utility.yul\":8405:8406   */\n      0x00\n        /* \"#utility.yul\":8398:8486   */\n      mstore\n        /* \"#utility.yul\":8505:8509   */\n      0x12\n        /* \"#utility.yul\":8502:8503   */\n      0x04\n        /* \"#utility.yul\":8495:8510   */\n      mstore\n        /* \"#utility.yul\":8529:8533   */\n      0x24\n        /* \"#utility.yul\":8526:8527   */\n      0x00\n        /* \"#utility.yul\":8519:8534   */\n      revert\n        /* \"#utility.yul\":8546:8731   */\n    tag_72:\n        /* \"#utility.yul\":8586:8587   */\n      0x00\n        /* \"#utility.yul\":8603:8623   */\n      tag_228\n        /* \"#utility.yul\":8621:8622   */\n      dup3\n        /* \"#utility.yul\":8603:8623   */\n      tag_108\n      jump\t// in\n    tag_228:\n        /* \"#utility.yul\":8598:8623   */\n      swap2\n      pop\n        /* \"#utility.yul\":8637:8657   */\n      tag_229\n        /* \"#utility.yul\":8655:8656   */\n      dup4\n        /* \"#utility.yul\":8637:8657   */\n      tag_108\n      jump\t// in\n    tag_229:\n        /* \"#utility.yul\":8632:8657   */\n      swap3\n      pop\n        /* \"#utility.yul\":8676:8677   */\n      dup3\n        /* \"#utility.yul\":8666:8701   */\n      tag_230\n      jumpi\n        /* \"#utility.yul\":8681:8699   */\n      tag_231\n      tag_129\n      jump\t// in\n    tag_231:\n        /* \"#utility.yul\":8666:8701   */\n    tag_230:\n        /* \"#utility.yul\":8723:8724   */\n      dup3\n        /* \"#utility.yul\":8720:8721   */\n      dup3\n        /* \"#utility.yul\":8716:8725   */\n      div\n        /* \"#utility.yul\":8711:8725   */\n      swap1\n      pop\n        /* \"#utility.yul\":8546:8731   */\n      swap3\n      swap2\n      pop\n      pop\n      jump\t// out\n        /* \"#utility.yul\":8737:8904   */\n    tag_130:\n        /* \"#utility.yul\":8877:8896   */\n      0x41207472616e73666572204661696c6564000000000000000000000000000000\n        /* \"#utility.yul\":8873:8874   */\n      0x00\n        /* \"#utility.yul\":8865:8871   */\n      dup3\n        /* \"#utility.yul\":8861:8875   */\n      add\n        /* \"#utility.yul\":8854:8897   */\n      mstore\n        /* \"#utility.yul\":8737:8904   */\n      pop\n      jump\t// out\n        /* \"#utility.yul\":8910:9276   */\n    tag_131:\n        /* \"#utility.yul\":9052:9055   */\n      0x00\n        /* \"#utility.yul\":9073:9140   */\n      tag_234\n        /* \"#utility.yul\":9137:9139   */\n      0x11\n        /* \"#utility.yul\":9132:9135   */\n      dup4\n        /* \"#utility.yul\":9073:9140   */\n      tag_123\n      jump\t// in\n    tag_234:\n        /* \"#utility.yul\":9066:9140   */\n      swap2\n      pop\n        /* \"#utility.yul\":9149:9242   */\n      tag_235\n        /* \"#utility.yul\":9238:9241   */\n      dup3\n        /* \"#utility.yul\":9149:9242   */\n      tag_130\n      jump\t// in\n    tag_235:\n        /* \"#utility.yul\":9267:9269   */\n      0x20\n        /* \"#utility.yul\":9262:9265   */\n      dup3\n        /* \"#utility.yul\":9258:9270   */\n      add\n        /* \"#utility.yul\":9251:9270   */\n      swap1\n      pop\n        /* \"#utility.yul\":8910:9276   */\n      swap2\n      swap1\n      pop\n      jump\t// out\n        /* \"#utility.yul\":9282:9701   */\n    tag_80:\n        /* \"#utility.yul\":9448:9452   */\n      0x00\n        /* \"#utility.yul\":9486:9488   */\n      0x20\n        /* \"#utility.yul\":9475:9484   */\n      dup3\n        /* \"#utility.yul\":9471:9489   */\n      add\n        /* \"#utility.yul\":9463:9489   */\n      swap1\n      pop\n        /* \"#utility.yul\":9535:9544   */\n      dup2\n        /* \"#utility.yul\":9529:9533   */\n      dup2\n        /* \"#utility.yul\":9525:9545   */\n      sub\n        /* \"#utility.yul\":9521:9522   */\n      0x00\n        /* \"#utility.yul\":9510:9519   */\n      dup4\n        /* \"#utility.yul\":9506:9523   */\n      add\n        /* \"#utility.yul\":9499:9546   */\n      mstore\n        /* \"#utility.yul\":9563:9694   */\n      tag_237\n        /* \"#utility.yul\":9689:9693   */\n      dup2\n        /* \"#utility.yul\":9563:9694   */\n      tag_131\n      jump\t// in\n    tag_237:\n        /* \"#utility.yul\":9555:9694   */\n      swap1\n      pop\n        /* \"#utility.yul\":9282:9701   */\n      swap2\n      swap1\n      pop\n      jump\t// out\n\n    auxdata: 0xa264697066735822122075d947d7351f19cf087677ff683540b8df82901b59ea46607b80832a7208393664736f6c63430008220033\n}\n",
				"bytecode": {
					"linkReferences": {},
					"object": "608060405234801561000f575f5ffd5b50604051610ead380380610ead83398181016040528101906100319190610115565b815f5f6101000a81548173ffffffffffffffffffffffffffffffffffffffff021916908373ffffffffffffffffffffffffffffffffffffffff1602179055508060015f6101000a81548173ffffffffffffffffffffffffffffffffffffffff021916908373ffffffffffffffffffffffffffffffffffffffff1602179055505050610153565b5f5ffd5b5f73ffffffffffffffffffffffffffffffffffffffff82169050919050565b5f6100e4826100bb565b9050919050565b6100f4816100da565b81146100fe575f5ffd5b50565b5f8151905061010f816100eb565b92915050565b5f5f6040838503121561012b5761012a6100b7565b5b5f61013885828601610101565b925050602061014985828601610101565b9150509250929050565b610d4d806101605f395ff3fe608060405234801561000f575f5ffd5b5060043610610086575f3560e01c80635f64b55b116100595780635f64b55b146101125780639cd441da14610130578063dc5fa6c51461014c578063e619a4981461016a57610086565b8063031020911461008a578063054d50d4146100a65780630fc63d10146100d657806319e36f3b146100f4575b5f5ffd5b6100a4600480360381019061009f919061084e565b610186565b005b6100c060048036038101906100bb9190610879565b610383565b6040516100cd91906108d8565b60405180910390f35b6100de6103d8565b6040516100eb919061096b565b60405180910390f35b6100fc6103fc565b60405161010991906108d8565b60405180910390f35b61011a610402565b604051610127919061096b565b60405180910390f35b61014a60048036038101906101459190610984565b610427565b005b610154610614565b60405161016191906108d8565b60405180910390f35b610184600480360381019061017f919061084e565b61061a565b005b5f61019682600254600354610383565b90505f5f9054906101000a900473ffffffffffffffffffffffffffffffffffffffff1673ffffffffffffffffffffffffffffffffffffffff166323b872dd3330856040518463ffffffff1660e01b81526004016101f5939291906109e2565b6020604051808303815f875af1158015610211573d5f5f3e3d5ffd5b505050506040513d601f19601f820116820180604052508101906102359190610a4c565b610274576040517f08c379a000000000000000000000000000000000000000000000000000000000815260040161026b90610ad1565b60405180910390fd5b60015f9054906101000a900473ffffffffffffffffffffffffffffffffffffffff1673ffffffffffffffffffffffffffffffffffffffff1663a9059cbb33836040518363ffffffff1660e01b81526004016102d0929190610aef565b6020604051808303815f875af11580156102ec573d5f5f3e3d5ffd5b505050506040513d601f19601f820116820180604052508101906103109190610a4c565b61034f576040517f08c379a000000000000000000000000000000000000000000000000000000000815260040161034690610b60565b60405180910390fd5b8160025f8282546103609190610bab565b925050819055508060035f8282546103789190610bde565b925050819055505050565b5f5f6103e5856103939190610c11565b90505f83826103a29190610c11565b90505f826103e8876103b49190610c11565b6103be9190610bab565b905080826103cc9190610c7f565b93505050509392505050565b5f5f9054906101000a900473ffffffffffffffffffffffffffffffffffffffff1681565b60035481565b60015f9054906101000a900473ffffffffffffffffffffffffffffffffffffffff1681565b5f5f9054906101000a900473ffffffffffffffffffffffffffffffffffffffff1673ffffffffffffffffffffffffffffffffffffffff166323b872dd3330856040518463ffffffff1660e01b8152600401610484939291906109e2565b6020604051808303815f875af11580156104a0573d5f5f3e3d5ffd5b505050506040513d601f19601f820116820180604052508101906104c49190610a4c565b610503576040517f08c379a00000000000000000000000000000000000000000000000000000000081526004016104fa90610cf9565b60405180910390fd5b60015f9054906101000a900473ffffffffffffffffffffffffffffffffffffffff1673ffffffffffffffffffffffffffffffffffffffff166323b872dd3330846040518463ffffffff1660e01b8152600401610561939291906109e2565b6020604051808303815f875af115801561057d573d5f5f3e3d5ffd5b505050506040513d601f19601f820116820180604052508101906105a19190610a4c565b6105e0576040517f08c379a00000000000000000000000000000000000000000000000000000000081526004016105d790610cf9565b60405180910390fd5b8160025f8282546105f19190610bab565b925050819055508060035f8282546106099190610bab565b925050819055505050565b60025481565b5f61062a82600354600254610383565b905060015f9054906101000a900473ffffffffffffffffffffffffffffffffffffffff1673ffffffffffffffffffffffffffffffffffffffff166323b872dd3330856040518463ffffffff1660e01b815260040161068a939291906109e2565b6020604051808303815f875af11580156106a6573d5f5f3e3d5ffd5b505050506040513d601f19601f820116820180604052508101906106ca9190610a4c565b610709576040517f08c379a000000000000000000000000000000000000000000000000000000000815260040161070090610b60565b60405180910390fd5b5f5f9054906101000a900473ffffffffffffffffffffffffffffffffffffffff1673ffffffffffffffffffffffffffffffffffffffff1663a9059cbb33836040518363ffffffff1660e01b8152600401610764929190610aef565b6020604051808303815f875af1158015610780573d5f5f3e3d5ffd5b505050506040513d601f19601f820116820180604052508101906107a49190610a4c565b6107e3576040517f08c379a00000000000000000000000000000000000000000000000000000000081526004016107da90610ad1565b60405180910390fd5b8160035f8282546107f49190610bab565b925050819055508060025f82825461080c9190610bde565b925050819055505050565b5f5ffd5b5f819050919050565b61082d8161081b565b8114610837575f5ffd5b50565b5f8135905061084881610824565b92915050565b5f6020828403121561086357610862610817565b5b5f6108708482850161083a565b91505092915050565b5f5f5f606084860312156108905761088f610817565b5b5f61089d8682870161083a565b93505060206108ae8682870161083a565b92505060406108bf8682870161083a565b9150509250925092565b6108d28161081b565b82525050565b5f6020820190506108eb5f8301846108c9565b92915050565b5f73ffffffffffffffffffffffffffffffffffffffff82169050919050565b5f819050919050565b5f61093361092e610929846108f1565b610910565b6108f1565b9050919050565b5f61094482610919565b9050919050565b5f6109558261093a565b9050919050565b6109658161094b565b82525050565b5f60208201905061097e5f83018461095c565b92915050565b5f5f6040838503121561099a57610999610817565b5b5f6109a78582860161083a565b92505060206109b88582860161083a565b9150509250929050565b5f6109cc826108f1565b9050919050565b6109dc816109c2565b82525050565b5f6060820190506109f55f8301866109d3565b610a0260208301856109d3565b610a0f60408301846108c9565b949350505050565b5f8115159050919050565b610a2b81610a17565b8114610a35575f5ffd5b50565b5f81519050610a4681610a22565b92915050565b5f60208284031215610a6157610a60610817565b5b5f610a6e84828501610a38565b91505092915050565b5f82825260208201905092915050565b7f41207472616e73666572206661696c65640000000000000000000000000000005f82015250565b5f610abb601183610a77565b9150610ac682610a87565b602082019050919050565b5f6020820190508181035f830152610ae881610aaf565b9050919050565b5f604082019050610b025f8301856109d3565b610b0f60208301846108c9565b9392505050565b7f42207472616e73666572206661696c65640000000000000000000000000000005f82015250565b5f610b4a601183610a77565b9150610b5582610b16565b602082019050919050565b5f6020820190508181035f830152610b7781610b3e565b9050919050565b7f4e487b71000000000000000000000000000000000000000000000000000000005f52601160045260245ffd5b5f610bb58261081b565b9150610bc08361081b565b9250828201905080821115610bd857610bd7610b7e565b5b92915050565b5f610be88261081b565b9150610bf38361081b565b9250828203905081811115610c0b57610c0a610b7e565b5b92915050565b5f610c1b8261081b565b9150610c268361081b565b9250828202610c348161081b565b91508282048414831517610c4b57610c4a610b7e565b5b5092915050565b7f4e487b71000000000000000000000000000000000000000000000000000000005f52601260045260245ffd5b5f610c898261081b565b9150610c948361081b565b925082610ca457610ca3610c52565b5b828204905092915050565b7f41207472616e73666572204661696c65640000000000000000000000000000005f82015250565b5f610ce3601183610a77565b9150610cee82610caf565b602082019050919050565b5f6020820190508181035f830152610d1081610cd7565b905091905056fea264697066735822122075d947d7351f19cf087677ff683540b8df82901b59ea46607b80832a7208393664736f6c63430008220033",
					"opcodes": "PUSH1 0x80 PUSH1 0x40 MSTORE CALLVALUE DUP1 ISZERO PUSH2 0xF JUMPI PUSH0 PUSH0 REVERT JUMPDEST POP PUSH1 0x40 MLOAD PUSH2 0xEAD CODESIZE SUB DUP1 PUSH2 0xEAD DUP4 CODECOPY DUP2 DUP2 ADD PUSH1 0x40 MSTORE DUP2 ADD SWAP1 PUSH2 0x31 SWAP2 SWAP1 PUSH2 0x115 JUMP JUMPDEST DUP2 PUSH0 PUSH0 PUSH2 0x100 EXP DUP2 SLOAD DUP2 PUSH20 0xFFFFFFFFFFFFFFFFFFFFFFFFFFFFFFFFFFFFFFFF MUL NOT AND SWAP1 DUP4 PUSH20 0xFFFFFFFFFFFFFFFFFFFFFFFFFFFFFFFFFFFFFFFF AND MUL OR SWAP1 SSTORE POP DUP1 PUSH1 0x1 PUSH0 PUSH2 0x100 EXP DUP2 SLOAD DUP2 PUSH20 0xFFFFFFFFFFFFFFFFFFFFFFFFFFFFFFFFFFFFFFFF MUL NOT AND SWAP1 DUP4 PUSH20 0xFFFFFFFFFFFFFFFFFFFFFFFFFFFFFFFFFFFFFFFF AND MUL OR SWAP1 SSTORE POP POP POP PUSH2 0x153 JUMP JUMPDEST PUSH0 PUSH0 REVERT JUMPDEST PUSH0 PUSH20 0xFFFFFFFFFFFFFFFFFFFFFFFFFFFFFFFFFFFFFFFF DUP3 AND SWAP1 POP SWAP2 SWAP1 POP JUMP JUMPDEST PUSH0 PUSH2 0xE4 DUP3 PUSH2 0xBB JUMP JUMPDEST SWAP1 POP SWAP2 SWAP1 POP JUMP JUMPDEST PUSH2 0xF4 DUP2 PUSH2 0xDA JUMP JUMPDEST DUP2 EQ PUSH2 0xFE JUMPI PUSH0 PUSH0 REVERT JUMPDEST POP JUMP JUMPDEST PUSH0 DUP2 MLOAD SWAP1 POP PUSH2 0x10F DUP2 PUSH2 0xEB JUMP JUMPDEST SWAP3 SWAP2 POP POP JUMP JUMPDEST PUSH0 PUSH0 PUSH1 0x40 DUP4 DUP6 SUB SLT ISZERO PUSH2 0x12B JUMPI PUSH2 0x12A PUSH2 0xB7 JUMP JUMPDEST JUMPDEST PUSH0 PUSH2 0x138 DUP6 DUP3 DUP7 ADD PUSH2 0x101 JUMP JUMPDEST SWAP3 POP POP PUSH1 0x20 PUSH2 0x149 DUP6 DUP3 DUP7 ADD PUSH2 0x101 JUMP JUMPDEST SWAP2 POP POP SWAP3 POP SWAP3 SWAP1 POP JUMP JUMPDEST PUSH2 0xD4D DUP1 PUSH2 0x160 PUSH0 CODECOPY PUSH0 RETURN INVALID PUSH1 0x80 PUSH1 0x40 MSTORE CALLVALUE DUP1 ISZERO PUSH2 0xF JUMPI PUSH0 PUSH0 REVERT JUMPDEST POP PUSH1 0x4 CALLDATASIZE LT PUSH2 0x86 JUMPI PUSH0 CALLDATALOAD PUSH1 0xE0 SHR DUP1 PUSH4 0x5F64B55B GT PUSH2 0x59 JUMPI DUP1 PUSH4 0x5F64B55B EQ PUSH2 0x112 JUMPI DUP1 PUSH4 0x9CD441DA EQ PUSH2 0x130 JUMPI DUP1 PUSH4 0xDC5FA6C5 EQ PUSH2 0x14C JUMPI DUP1 PUSH4 0xE619A498 EQ PUSH2 0x16A JUMPI PUSH2 0x86 JUMP JUMPDEST DUP1 PUSH4 0x3102091 EQ PUSH2 0x8A JUMPI DUP1 PUSH4 0x54D50D4 EQ PUSH2 0xA6 JUMPI DUP1 PUSH4 0xFC63D10 EQ PUSH2 0xD6 JUMPI DUP1 PUSH4 0x19E36F3B EQ PUSH2 0xF4 JUMPI JUMPDEST PUSH0 PUSH0 REVERT JUMPDEST PUSH2 0xA4 PUSH1 0x4 DUP1 CALLDATASIZE SUB DUP2 ADD SWAP1 PUSH2 0x9F SWAP2 SWAP1 PUSH2 0x84E JUMP JUMPDEST PUSH2 0x186 JUMP JUMPDEST STOP JUMPDEST PUSH2 0xC0 PUSH1 0x4 DUP1 CALLDATASIZE SUB DUP2 ADD SWAP1 PUSH2 0xBB SWAP2 SWAP1 PUSH2 0x879 JUMP JUMPDEST PUSH2 0x383 JUMP JUMPDEST PUSH1 0x40 MLOAD PUSH2 0xCD SWAP2 SWAP1 PUSH2 0x8D8 JUMP JUMPDEST PUSH1 0x40 MLOAD DUP1 SWAP2 SUB SWAP1 RETURN JUMPDEST PUSH2 0xDE PUSH2 0x3D8 JUMP JUMPDEST PUSH1 0x40 MLOAD PUSH2 0xEB SWAP2 SWAP1 PUSH2 0x96B JUMP JUMPDEST PUSH1 0x40 MLOAD DUP1 SWAP2 SUB SWAP1 RETURN JUMPDEST PUSH2 0xFC PUSH2 0x3FC JUMP JUMPDEST PUSH1 0x40 MLOAD PUSH2 0x109 SWAP2 SWAP1 PUSH2 0x8D8 JUMP JUMPDEST PUSH1 0x40 MLOAD DUP1 SWAP2 SUB SWAP1 RETURN JUMPDEST PUSH2 0x11A PUSH2 0x402 JUMP JUMPDEST PUSH1 0x40 MLOAD PUSH2 0x127 SWAP2 SWAP1 PUSH2 0x96B JUMP JUMPDEST PUSH1 0x40 MLOAD DUP1 SWAP2 SUB SWAP1 RETURN JUMPDEST PUSH2 0x14A PUSH1 0x4 DUP1 CALLDATASIZE SUB DUP2 ADD SWAP1 PUSH2 0x145 SWAP2 SWAP1 PUSH2 0x984 JUMP JUMPDEST PUSH2 0x427 JUMP JUMPDEST STOP JUMPDEST PUSH2 0x154 PUSH2 0x614 JUMP JUMPDEST PUSH1 0x40 MLOAD PUSH2 0x161 SWAP2 SWAP1 PUSH2 0x8D8 JUMP JUMPDEST PUSH1 0x40 MLOAD DUP1 SWAP2 SUB SWAP1 RETURN JUMPDEST PUSH2 0x184 PUSH1 0x4 DUP1 CALLDATASIZE SUB DUP2 ADD SWAP1 PUSH2 0x17F SWAP2 SWAP1 PUSH2 0x84E JUMP JUMPDEST PUSH2 0x61A JUMP JUMPDEST STOP JUMPDEST PUSH0 PUSH2 0x196 DUP3 PUSH1 0x2 SLOAD PUSH1 0x3 SLOAD PUSH2 0x383 JUMP JUMPDEST SWAP1 POP PUSH0 PUSH0 SWAP1 SLOAD SWAP1 PUSH2 0x100 EXP SWAP1 DIV PUSH20 0xFFFFFFFFFFFFFFFFFFFFFFFFFFFFFFFFFFFFFFFF AND PUSH20 0xFFFFFFFFFFFFFFFFFFFFFFFFFFFFFFFFFFFFFFFF AND PUSH4 0x23B872DD CALLER ADDRESS DUP6 PUSH1 0x40 MLOAD DUP5 PUSH4 0xFFFFFFFF AND PUSH1 0xE0 SHL DUP2 MSTORE PUSH1 0x4 ADD PUSH2 0x1F5 SWAP4 SWAP3 SWAP2 SWAP1 PUSH2 0x9E2 JUMP JUMPDEST PUSH1 0x20 PUSH1 0x40 MLOAD DUP1 DUP4 SUB DUP2 PUSH0 DUP8 GAS CALL ISZERO DUP1 ISZERO PUSH2 0x211 JUMPI RETURNDATASIZE PUSH0 PUSH0 RETURNDATACOPY RETURNDATASIZE PUSH0 REVERT JUMPDEST POP POP POP POP PUSH1 0x40 MLOAD RETURNDATASIZE PUSH1 0x1F NOT PUSH1 0x1F DUP3 ADD AND DUP3 ADD DUP1 PUSH1 0x40 MSTORE POP DUP2 ADD SWAP1 PUSH2 0x235 SWAP2 SWAP1 PUSH2 0xA4C JUMP JUMPDEST PUSH2 0x274 JUMPI PUSH1 0x40 MLOAD PUSH32 0x8C379A000000000000000000000000000000000000000000000000000000000 DUP2 MSTORE PUSH1 0x4 ADD PUSH2 0x26B SWAP1 PUSH2 0xAD1 JUMP JUMPDEST PUSH1 0x40 MLOAD DUP1 SWAP2 SUB SWAP1 REVERT JUMPDEST PUSH1 0x1 PUSH0 SWAP1 SLOAD SWAP1 PUSH2 0x100 EXP SWAP1 DIV PUSH20 0xFFFFFFFFFFFFFFFFFFFFFFFFFFFFFFFFFFFFFFFF AND PUSH20 0xFFFFFFFFFFFFFFFFFFFFFFFFFFFFFFFFFFFFFFFF AND PUSH4 0xA9059CBB CALLER DUP4 PUSH1 0x40 MLOAD DUP4 PUSH4 0xFFFFFFFF AND PUSH1 0xE0 SHL DUP2 MSTORE PUSH1 0x4 ADD PUSH2 0x2D0 SWAP3 SWAP2 SWAP1 PUSH2 0xAEF JUMP JUMPDEST PUSH1 0x20 PUSH1 0x40 MLOAD DUP1 DUP4 SUB DUP2 PUSH0 DUP8 GAS CALL ISZERO DUP1 ISZERO PUSH2 0x2EC JUMPI RETURNDATASIZE PUSH0 PUSH0 RETURNDATACOPY RETURNDATASIZE PUSH0 REVERT JUMPDEST POP POP POP POP PUSH1 0x40 MLOAD RETURNDATASIZE PUSH1 0x1F NOT PUSH1 0x1F DUP3 ADD AND DUP3 ADD DUP1 PUSH1 0x40 MSTORE POP DUP2 ADD SWAP1 PUSH2 0x310 SWAP2 SWAP1 PUSH2 0xA4C JUMP JUMPDEST PUSH2 0x34F JUMPI PUSH1 0x40 MLOAD PUSH32 0x8C379A000000000000000000000000000000000000000000000000000000000 DUP2 MSTORE PUSH1 0x4 ADD PUSH2 0x346 SWAP1 PUSH2 0xB60 JUMP JUMPDEST PUSH1 0x40 MLOAD DUP1 SWAP2 SUB SWAP1 REVERT JUMPDEST DUP2 PUSH1 0x2 PUSH0 DUP3 DUP3 SLOAD PUSH2 0x360 SWAP2 SWAP1 PUSH2 0xBAB JUMP JUMPDEST SWAP3 POP POP DUP2 SWAP1 SSTORE POP DUP1 PUSH1 0x3 PUSH0 DUP3 DUP3 SLOAD PUSH2 0x378 SWAP2 SWAP1 PUSH2 0xBDE JUMP JUMPDEST SWAP3 POP POP DUP2 SWAP1 SSTORE POP POP POP JUMP JUMPDEST PUSH0 PUSH0 PUSH2 0x3E5 DUP6 PUSH2 0x393 SWAP2 SWAP1 PUSH2 0xC11 JUMP JUMPDEST SWAP1 POP PUSH0 DUP4 DUP3 PUSH2 0x3A2 SWAP2 SWAP1 PUSH2 0xC11 JUMP JUMPDEST SWAP1 POP PUSH0 DUP3 PUSH2 0x3E8 DUP8 PUSH2 0x3B4 SWAP2 SWAP1 PUSH2 0xC11 JUMP JUMPDEST PUSH2 0x3BE SWAP2 SWAP1 PUSH2 0xBAB JUMP JUMPDEST SWAP1 POP DUP1 DUP3 PUSH2 0x3CC SWAP2 SWAP1 PUSH2 0xC7F JUMP JUMPDEST SWAP4 POP POP POP POP SWAP4 SWAP3 POP POP POP JUMP JUMPDEST PUSH0 PUSH0 SWAP1 SLOAD SWAP1 PUSH2 0x100 EXP SWAP1 DIV PUSH20 0xFFFFFFFFFFFFFFFFFFFFFFFFFFFFFFFFFFFFFFFF AND DUP2 JUMP JUMPDEST PUSH1 0x3 SLOAD DUP2 JUMP JUMPDEST PUSH1 0x1 PUSH0 SWAP1 SLOAD SWAP1 PUSH2 0x100 EXP SWAP1 DIV PUSH20 0xFFFFFFFFFFFFFFFFFFFFFFFFFFFFFFFFFFFFFFFF AND DUP2 JUMP JUMPDEST PUSH0 PUSH0 SWAP1 SLOAD SWAP1 PUSH2 0x100 EXP SWAP1 DIV PUSH20 0xFFFFFFFFFFFFFFFFFFFFFFFFFFFFFFFFFFFFFFFF AND PUSH20 0xFFFFFFFFFFFFFFFFFFFFFFFFFFFFFFFFFFFFFFFF AND PUSH4 0x23B872DD CALLER ADDRESS DUP6 PUSH1 0x40 MLOAD DUP5 PUSH4 0xFFFFFFFF AND PUSH1 0xE0 SHL DUP2 MSTORE PUSH1 0x4 ADD PUSH2 0x484 SWAP4 SWAP3 SWAP2 SWAP1 PUSH2 0x9E2 JUMP JUMPDEST PUSH1 0x20 PUSH1 0x40 MLOAD DUP1 DUP4 SUB DUP2 PUSH0 DUP8 GAS CALL ISZERO DUP1 ISZERO PUSH2 0x4A0 JUMPI RETURNDATASIZE PUSH0 PUSH0 RETURNDATACOPY RETURNDATASIZE PUSH0 REVERT JUMPDEST POP POP POP POP PUSH1 0x40 MLOAD RETURNDATASIZE PUSH1 0x1F NOT PUSH1 0x1F DUP3 ADD AND DUP3 ADD DUP1 PUSH1 0x40 MSTORE POP DUP2 ADD SWAP1 PUSH2 0x4C4 SWAP2 SWAP1 PUSH2 0xA4C JUMP JUMPDEST PUSH2 0x503 JUMPI PUSH1 0x40 MLOAD PUSH32 0x8C379A000000000000000000000000000000000000000000000000000000000 DUP2 MSTORE PUSH1 0x4 ADD PUSH2 0x4FA SWAP1 PUSH2 0xCF9 JUMP JUMPDEST PUSH1 0x40 MLOAD DUP1 SWAP2 SUB SWAP1 REVERT JUMPDEST PUSH1 0x1 PUSH0 SWAP1 SLOAD SWAP1 PUSH2 0x100 EXP SWAP1 DIV PUSH20 0xFFFFFFFFFFFFFFFFFFFFFFFFFFFFFFFFFFFFFFFF AND PUSH20 0xFFFFFFFFFFFFFFFFFFFFFFFFFFFFFFFFFFFFFFFF AND PUSH4 0x23B872DD CALLER ADDRESS DUP5 PUSH1 0x40 MLOAD DUP5 PUSH4 0xFFFFFFFF AND PUSH1 0xE0 SHL DUP2 MSTORE PUSH1 0x4 ADD PUSH2 0x561 SWAP4 SWAP3 SWAP2 SWAP1 PUSH2 0x9E2 JUMP JUMPDEST PUSH1 0x20 PUSH1 0x40 MLOAD DUP1 DUP4 SUB DUP2 PUSH0 DUP8 GAS CALL ISZERO DUP1 ISZERO PUSH2 0x57D JUMPI RETURNDATASIZE PUSH0 PUSH0 RETURNDATACOPY RETURNDATASIZE PUSH0 REVERT JUMPDEST POP POP POP POP PUSH1 0x40 MLOAD RETURNDATASIZE PUSH1 0x1F NOT PUSH1 0x1F DUP3 ADD AND DUP3 ADD DUP1 PUSH1 0x40 MSTORE POP DUP2 ADD SWAP1 PUSH2 0x5A1 SWAP2 SWAP1 PUSH2 0xA4C JUMP JUMPDEST PUSH2 0x5E0 JUMPI PUSH1 0x40 MLOAD PUSH32 0x8C379A000000000000000000000000000000000000000000000000000000000 DUP2 MSTORE PUSH1 0x4 ADD PUSH2 0x5D7 SWAP1 PUSH2 0xCF9 JUMP JUMPDEST PUSH1 0x40 MLOAD DUP1 SWAP2 SUB SWAP1 REVERT JUMPDEST DUP2 PUSH1 0x2 PUSH0 DUP3 DUP3 SLOAD PUSH2 0x5F1 SWAP2 SWAP1 PUSH2 0xBAB JUMP JUMPDEST SWAP3 POP POP DUP2 SWAP1 SSTORE POP DUP1 PUSH1 0x3 PUSH0 DUP3 DUP3 SLOAD PUSH2 0x609 SWAP2 SWAP1 PUSH2 0xBAB JUMP JUMPDEST SWAP3 POP POP DUP2 SWAP1 SSTORE POP POP POP JUMP JUMPDEST PUSH1 0x2 SLOAD DUP2 JUMP JUMPDEST PUSH0 PUSH2 0x62A DUP3 PUSH1 0x3 SLOAD PUSH1 0x2 SLOAD PUSH2 0x383 JUMP JUMPDEST SWAP1 POP PUSH1 0x1 PUSH0 SWAP1 SLOAD SWAP1 PUSH2 0x100 EXP SWAP1 DIV PUSH20 0xFFFFFFFFFFFFFFFFFFFFFFFFFFFFFFFFFFFFFFFF AND PUSH20 0xFFFFFFFFFFFFFFFFFFFFFFFFFFFFFFFFFFFFFFFF AND PUSH4 0x23B872DD CALLER ADDRESS DUP6 PUSH1 0x40 MLOAD DUP5 PUSH4 0xFFFFFFFF AND PUSH1 0xE0 SHL DUP2 MSTORE PUSH1 0x4 ADD PUSH2 0x68A SWAP4 SWAP3 SWAP2 SWAP1 PUSH2 0x9E2 JUMP JUMPDEST PUSH1 0x20 PUSH1 0x40 MLOAD DUP1 DUP4 SUB DUP2 PUSH0 DUP8 GAS CALL ISZERO DUP1 ISZERO PUSH2 0x6A6 JUMPI RETURNDATASIZE PUSH0 PUSH0 RETURNDATACOPY RETURNDATASIZE PUSH0 REVERT JUMPDEST POP POP POP POP PUSH1 0x40 MLOAD RETURNDATASIZE PUSH1 0x1F NOT PUSH1 0x1F DUP3 ADD AND DUP3 ADD DUP1 PUSH1 0x40 MSTORE POP DUP2 ADD SWAP1 PUSH2 0x6CA SWAP2 SWAP1 PUSH2 0xA4C JUMP JUMPDEST PUSH2 0x709 JUMPI PUSH1 0x40 MLOAD PUSH32 0x8C379A000000000000000000000000000000000000000000000000000000000 DUP2 MSTORE PUSH1 0x4 ADD PUSH2 0x700 SWAP1 PUSH2 0xB60 JUMP JUMPDEST PUSH1 0x40 MLOAD DUP1 SWAP2 SUB SWAP1 REVERT JUMPDEST PUSH0 PUSH0 SWAP1 SLOAD SWAP1 PUSH2 0x100 EXP SWAP1 DIV PUSH20 0xFFFFFFFFFFFFFFFFFFFFFFFFFFFFFFFFFFFFFFFF AND PUSH20 0xFFFFFFFFFFFFFFFFFFFFFFFFFFFFFFFFFFFFFFFF AND PUSH4 0xA9059CBB CALLER DUP4 PUSH1 0x40 MLOAD DUP4 PUSH4 0xFFFFFFFF AND PUSH1 0xE0 SHL DUP2 MSTORE PUSH1 0x4 ADD PUSH2 0x764 SWAP3 SWAP2 SWAP1 PUSH2 0xAEF JUMP JUMPDEST PUSH1 0x20 PUSH1 0x40 MLOAD DUP1 DUP4 SUB DUP2 PUSH0 DUP8 GAS CALL ISZERO DUP1 ISZERO PUSH2 0x780 JUMPI RETURNDATASIZE PUSH0 PUSH0 RETURNDATACOPY RETURNDATASIZE PUSH0 REVERT JUMPDEST POP POP POP POP PUSH1 0x40 MLOAD RETURNDATASIZE PUSH1 0x1F NOT PUSH1 0x1F DUP3 ADD AND DUP3 ADD DUP1 PUSH1 0x40 MSTORE POP DUP2 ADD SWAP1 PUSH2 0x7A4 SWAP2 SWAP1 PUSH2 0xA4C JUMP JUMPDEST PUSH2 0x7E3 JUMPI PUSH1 0x40 MLOAD PUSH32 0x8C379A000000000000000000000000000000000000000000000000000000000 DUP2 MSTORE PUSH1 0x4 ADD PUSH2 0x7DA SWAP1 PUSH2 0xAD1 JUMP JUMPDEST PUSH1 0x40 MLOAD DUP1 SWAP2 SUB SWAP1 REVERT JUMPDEST DUP2 PUSH1 0x3 PUSH0 DUP3 DUP3 SLOAD PUSH2 0x7F4 SWAP2 SWAP1 PUSH2 0xBAB JUMP JUMPDEST SWAP3 POP POP DUP2 SWAP1 SSTORE POP DUP1 PUSH1 0x2 PUSH0 DUP3 DUP3 SLOAD PUSH2 0x80C SWAP2 SWAP1 PUSH2 0xBDE JUMP JUMPDEST SWAP3 POP POP DUP2 SWAP1 SSTORE POP POP POP JUMP JUMPDEST PUSH0 PUSH0 REVERT JUMPDEST PUSH0 DUP2 SWAP1 POP SWAP2 SWAP1 POP JUMP JUMPDEST PUSH2 0x82D DUP2 PUSH2 0x81B JUMP JUMPDEST DUP2 EQ PUSH2 0x837 JUMPI PUSH0 PUSH0 REVERT JUMPDEST POP JUMP JUMPDEST PUSH0 DUP2 CALLDATALOAD SWAP1 POP PUSH2 0x848 DUP2 PUSH2 0x824 JUMP JUMPDEST SWAP3 SWAP2 POP POP JUMP JUMPDEST PUSH0 PUSH1 0x20 DUP3 DUP5 SUB SLT ISZERO PUSH2 0x863 JUMPI PUSH2 0x862 PUSH2 0x817 JUMP JUMPDEST JUMPDEST PUSH0 PUSH2 0x870 DUP5 DUP3 DUP6 ADD PUSH2 0x83A JUMP JUMPDEST SWAP2 POP POP SWAP3 SWAP2 POP POP JUMP JUMPDEST PUSH0 PUSH0 PUSH0 PUSH1 0x60 DUP5 DUP7 SUB SLT ISZERO PUSH2 0x890 JUMPI PUSH2 0x88F PUSH2 0x817 JUMP JUMPDEST JUMPDEST PUSH0 PUSH2 0x89D DUP7 DUP3 DUP8 ADD PUSH2 0x83A JUMP JUMPDEST SWAP4 POP POP PUSH1 0x20 PUSH2 0x8AE DUP7 DUP3 DUP8 ADD PUSH2 0x83A JUMP JUMPDEST SWAP3 POP POP PUSH1 0x40 PUSH2 0x8BF DUP7 DUP3 DUP8 ADD PUSH2 0x83A JUMP JUMPDEST SWAP2 POP POP SWAP3 POP SWAP3 POP SWAP3 JUMP JUMPDEST PUSH2 0x8D2 DUP2 PUSH2 0x81B JUMP JUMPDEST DUP3 MSTORE POP POP JUMP JUMPDEST PUSH0 PUSH1 0x20 DUP3 ADD SWAP1 POP PUSH2 0x8EB PUSH0 DUP4 ADD DUP5 PUSH2 0x8C9 JUMP JUMPDEST SWAP3 SWAP2 POP POP JUMP JUMPDEST PUSH0 PUSH20 0xFFFFFFFFFFFFFFFFFFFFFFFFFFFFFFFFFFFFFFFF DUP3 AND SWAP1 POP SWAP2 SWAP1 POP JUMP JUMPDEST PUSH0 DUP2 SWAP1 POP SWAP2 SWAP1 POP JUMP JUMPDEST PUSH0 PUSH2 0x933 PUSH2 0x92E PUSH2 0x929 DUP5 PUSH2 0x8F1 JUMP JUMPDEST PUSH2 0x910 JUMP JUMPDEST PUSH2 0x8F1 JUMP JUMPDEST SWAP1 POP SWAP2 SWAP1 POP JUMP JUMPDEST PUSH0 PUSH2 0x944 DUP3 PUSH2 0x919 JUMP JUMPDEST SWAP1 POP SWAP2 SWAP1 POP JUMP JUMPDEST PUSH0 PUSH2 0x955 DUP3 PUSH2 0x93A JUMP JUMPDEST SWAP1 POP SWAP2 SWAP1 POP JUMP JUMPDEST PUSH2 0x965 DUP2 PUSH2 0x94B JUMP JUMPDEST DUP3 MSTORE POP POP JUMP JUMPDEST PUSH0 PUSH1 0x20 DUP3 ADD SWAP1 POP PUSH2 0x97E PUSH0 DUP4 ADD DUP5 PUSH2 0x95C JUMP JUMPDEST SWAP3 SWAP2 POP POP JUMP JUMPDEST PUSH0 PUSH0 PUSH1 0x40 DUP4 DUP6 SUB SLT ISZERO PUSH2 0x99A JUMPI PUSH2 0x999 PUSH2 0x817 JUMP JUMPDEST JUMPDEST PUSH0 PUSH2 0x9A7 DUP6 DUP3 DUP7 ADD PUSH2 0x83A JUMP JUMPDEST SWAP3 POP POP PUSH1 0x20 PUSH2 0x9B8 DUP6 DUP3 DUP7 ADD PUSH2 0x83A JUMP JUMPDEST SWAP2 POP POP SWAP3 POP SWAP3 SWAP1 POP JUMP JUMPDEST PUSH0 PUSH2 0x9CC DUP3 PUSH2 0x8F1 JUMP JUMPDEST SWAP1 POP SWAP2 SWAP1 POP JUMP JUMPDEST PUSH2 0x9DC DUP2 PUSH2 0x9C2 JUMP JUMPDEST DUP3 MSTORE POP POP JUMP JUMPDEST PUSH0 PUSH1 0x60 DUP3 ADD SWAP1 POP PUSH2 0x9F5 PUSH0 DUP4 ADD DUP7 PUSH2 0x9D3 JUMP JUMPDEST PUSH2 0xA02 PUSH1 0x20 DUP4 ADD DUP6 PUSH2 0x9D3 JUMP JUMPDEST PUSH2 0xA0F PUSH1 0x40 DUP4 ADD DUP5 PUSH2 0x8C9 JUMP JUMPDEST SWAP5 SWAP4 POP POP POP POP JUMP JUMPDEST PUSH0 DUP2 ISZERO ISZERO SWAP1 POP SWAP2 SWAP1 POP JUMP JUMPDEST PUSH2 0xA2B DUP2 PUSH2 0xA17 JUMP JUMPDEST DUP2 EQ PUSH2 0xA35 JUMPI PUSH0 PUSH0 REVERT JUMPDEST POP JUMP JUMPDEST PUSH0 DUP2 MLOAD SWAP1 POP PUSH2 0xA46 DUP2 PUSH2 0xA22 JUMP JUMPDEST SWAP3 SWAP2 POP POP JUMP JUMPDEST PUSH0 PUSH1 0x20 DUP3 DUP5 SUB SLT ISZERO PUSH2 0xA61 JUMPI PUSH2 0xA60 PUSH2 0x817 JUMP JUMPDEST JUMPDEST PUSH0 PUSH2 0xA6E DUP5 DUP3 DUP6 ADD PUSH2 0xA38 JUMP JUMPDEST SWAP2 POP POP SWAP3 SWAP2 POP POP JUMP JUMPDEST PUSH0 DUP3 DUP3 MSTORE PUSH1 0x20 DUP3 ADD SWAP1 POP SWAP3 SWAP2 POP POP JUMP JUMPDEST PUSH32 0x41207472616E73666572206661696C6564000000000000000000000000000000 PUSH0 DUP3 ADD MSTORE POP JUMP JUMPDEST PUSH0 PUSH2 0xABB PUSH1 0x11 DUP4 PUSH2 0xA77 JUMP JUMPDEST SWAP2 POP PUSH2 0xAC6 DUP3 PUSH2 0xA87 JUMP JUMPDEST PUSH1 0x20 DUP3 ADD SWAP1 POP SWAP2 SWAP1 POP JUMP JUMPDEST PUSH0 PUSH1 0x20 DUP3 ADD SWAP1 POP DUP2 DUP2 SUB PUSH0 DUP4 ADD MSTORE PUSH2 0xAE8 DUP2 PUSH2 0xAAF JUMP JUMPDEST SWAP1 POP SWAP2 SWAP1 POP JUMP JUMPDEST PUSH0 PUSH1 0x40 DUP3 ADD SWAP1 POP PUSH2 0xB02 PUSH0 DUP4 ADD DUP6 PUSH2 0x9D3 JUMP JUMPDEST PUSH2 0xB0F PUSH1 0x20 DUP4 ADD DUP5 PUSH2 0x8C9 JUMP JUMPDEST SWAP4 SWAP3 POP POP POP JUMP JUMPDEST PUSH32 0x42207472616E73666572206661696C6564000000000000000000000000000000 PUSH0 DUP3 ADD MSTORE POP JUMP JUMPDEST PUSH0 PUSH2 0xB4A PUSH1 0x11 DUP4 PUSH2 0xA77 JUMP JUMPDEST SWAP2 POP PUSH2 0xB55 DUP3 PUSH2 0xB16 JUMP JUMPDEST PUSH1 0x20 DUP3 ADD SWAP1 POP SWAP2 SWAP1 POP JUMP JUMPDEST PUSH0 PUSH1 0x20 DUP3 ADD SWAP1 POP DUP2 DUP2 SUB PUSH0 DUP4 ADD MSTORE PUSH2 0xB77 DUP2 PUSH2 0xB3E JUMP JUMPDEST SWAP1 POP SWAP2 SWAP1 POP JUMP JUMPDEST PUSH32 0x4E487B7100000000000000000000000000000000000000000000000000000000 PUSH0 MSTORE PUSH1 0x11 PUSH1 0x4 MSTORE PUSH1 0x24 PUSH0 REVERT JUMPDEST PUSH0 PUSH2 0xBB5 DUP3 PUSH2 0x81B JUMP JUMPDEST SWAP2 POP PUSH2 0xBC0 DUP4 PUSH2 0x81B JUMP JUMPDEST SWAP3 POP DUP3 DUP3 ADD SWAP1 POP DUP1 DUP3 GT ISZERO PUSH2 0xBD8 JUMPI PUSH2 0xBD7 PUSH2 0xB7E JUMP JUMPDEST JUMPDEST SWAP3 SWAP2 POP POP JUMP JUMPDEST PUSH0 PUSH2 0xBE8 DUP3 PUSH2 0x81B JUMP JUMPDEST SWAP2 POP PUSH2 0xBF3 DUP4 PUSH2 0x81B JUMP JUMPDEST SWAP3 POP DUP3 DUP3 SUB SWAP1 POP DUP2 DUP2 GT ISZERO PUSH2 0xC0B JUMPI PUSH2 0xC0A PUSH2 0xB7E JUMP JUMPDEST JUMPDEST SWAP3 SWAP2 POP POP JUMP JUMPDEST PUSH0 PUSH2 0xC1B DUP3 PUSH2 0x81B JUMP JUMPDEST SWAP2 POP PUSH2 0xC26 DUP4 PUSH2 0x81B JUMP JUMPDEST SWAP3 POP DUP3 DUP3 MUL PUSH2 0xC34 DUP2 PUSH2 0x81B JUMP JUMPDEST SWAP2 POP DUP3 DUP3 DIV DUP5 EQ DUP4 ISZERO OR PUSH2 0xC4B JUMPI PUSH2 0xC4A PUSH2 0xB7E JUMP JUMPDEST JUMPDEST POP SWAP3 SWAP2 POP POP JUMP JUMPDEST PUSH32 0x4E487B7100000000000000000000000000000000000000000000000000000000 PUSH0 MSTORE PUSH1 0x12 PUSH1 0x4 MSTORE PUSH1 0x24 PUSH0 REVERT JUMPDEST PUSH0 PUSH2 0xC89 DUP3 PUSH2 0x81B JUMP JUMPDEST SWAP2 POP PUSH2 0xC94 DUP4 PUSH2 0x81B JUMP JUMPDEST SWAP3 POP DUP3 PUSH2 0xCA4 JUMPI PUSH2 0xCA3 PUSH2 0xC52 JUMP JUMPDEST JUMPDEST DUP3 DUP3 DIV SWAP1 POP SWAP3 SWAP2 POP POP JUMP JUMPDEST PUSH32 0x41207472616E73666572204661696C6564000000000000000000000000000000 PUSH0 DUP3 ADD MSTORE POP JUMP JUMPDEST PUSH0 PUSH2 0xCE3 PUSH1 0x11 DUP4 PUSH2 0xA77 JUMP JUMPDEST SWAP2 POP PUSH2 0xCEE DUP3 PUSH2 0xCAF JUMP JUMPDEST PUSH1 0x20 DUP3 ADD SWAP1 POP SWAP2 SWAP1 POP JUMP JUMPDEST PUSH0 PUSH1 0x20 DUP3 ADD SWAP1 POP DUP2 DUP2 SUB PUSH0 DUP4 ADD MSTORE PUSH2 0xD10 DUP2 PUSH2 0xCD7 JUMP JUMPDEST SWAP1 POP SWAP2 SWAP1 POP JUMP INVALID LOG2 PUSH5 0x6970667358 0x22 SLT KECCAK256 PUSH22 0xD947D7351F19CF087677FF683540B8DF82901B59EA46 PUSH1 0x7B DUP1 DUP4 0x2A PUSH19 0x8393664736F6C634300082200330000000000 "
				},
				"gasEstimates": {
					"creation": {
						"codeDepositCost": "681000",
						"executionCost": "infinite",
						"totalCost": "infinite"
					},
					"external": {
						"addLiquidity(uint256,uint256)": "infinite",
						"getAmountOut(uint256,uint256,uint256)": "infinite",
						"reserveA()": "2469",
						"reserveB()": "2492",
						"swapAForB(uint256)": "infinite",
						"swapBForA(uint256)": "infinite",
						"tokenA()": "infinite",
						"tokenB()": "infinite"
					}
				},
				"methodIdentifiers": {
					"addLiquidity(uint256,uint256)": "9cd441da",
					"getAmountOut(uint256,uint256,uint256)": "054d50d4",
					"reserveA()": "dc5fa6c5",
					"reserveB()": "19e36f3b",
					"swapAForB(uint256)": "03102091",
					"swapBForA(uint256)": "e619a498",
					"tokenA()": "0fc63d10",
					"tokenB()": "5f64b55b"
				}
			},
			"storageLayout": {
				"storage": [
					{
						"astId": 168,
						"contract": "contracts/simpleAMM.sol:simpleAMM",
						"label": "tokenA",
						"offset": 0,
						"slot": "0",
						"type": "t_contract(ERC20)162"
					},
					{
						"astId": 171,
						"contract": "contracts/simpleAMM.sol:simpleAMM",
						"label": "tokenB",
						"offset": 0,
						"slot": "1",
						"type": "t_contract(ERC20)162"
					},
					{
						"astId": 173,
						"contract": "contracts/simpleAMM.sol:simpleAMM",
						"label": "reserveA",
						"offset": 0,
						"slot": "2",
						"type": "t_uint256"
					},
					{
						"astId": 175,
						"contract": "contracts/simpleAMM.sol:simpleAMM",
						"label": "reserveB",
						"offset": 0,
						"slot": "3",
						"type": "t_uint256"
					}
				],
				"types": {
					"t_contract(ERC20)162": {
						"encoding": "inplace",
						"label": "contract ERC20",
						"numberOfBytes": "20"
					},
					"t_uint256": {
						"encoding": "inplace",
						"label": "uint256",
						"numberOfBytes": "32"
					}
				}
			},
			"userdoc": {
				"kind": "user",
				"methods": {},
				"version": 1
			}
		}
	}
}